{
	"Modifier-Exercise.sol": {
		"TweetStorage": {
			"abi": [
				{
					"anonymous": false,
					"inputs": [
						{
							"indexed": true,
							"internalType": "address",
							"name": "author",
							"type": "address"
						},
						{
							"indexed": false,
							"internalType": "string",
							"name": "content",
							"type": "string"
						},
						{
							"indexed": false,
							"internalType": "uint256",
							"name": "timestamp",
							"type": "uint256"
						}
					],
					"name": "TweetCreated",
					"type": "event"
				},
				{
					"inputs": [
						{
							"internalType": "string",
							"name": "_content",
							"type": "string"
						}
					],
					"name": "createTweet",
					"outputs": [],
					"stateMutability": "nonpayable",
					"type": "function"
				},
				{
					"inputs": [
						{
							"internalType": "address",
							"name": "_author",
							"type": "address"
						}
					],
					"name": "getTweetsByAuthor",
					"outputs": [
						{
							"components": [
								{
									"internalType": "address",
									"name": "author",
									"type": "address"
								},
								{
									"internalType": "string",
									"name": "content",
									"type": "string"
								},
								{
									"internalType": "uint256",
									"name": "timestamp",
									"type": "uint256"
								}
							],
							"internalType": "struct TweetStorage.Tweet[]",
							"name": "",
							"type": "tuple[]"
						}
					],
					"stateMutability": "view",
					"type": "function"
				},
				{
					"inputs": [
						{
							"internalType": "address",
							"name": "",
							"type": "address"
						},
						{
							"internalType": "uint256",
							"name": "",
							"type": "uint256"
						}
					],
					"name": "tweets",
					"outputs": [
						{
							"internalType": "address",
							"name": "author",
							"type": "address"
						},
						{
							"internalType": "string",
							"name": "content",
							"type": "string"
						},
						{
							"internalType": "uint256",
							"name": "timestamp",
							"type": "uint256"
						}
					],
					"stateMutability": "view",
					"type": "function"
				}
			],
			"devdoc": {
				"kind": "dev",
				"methods": {},
				"version": 1
			},
			"evm": {
				"assembly": "    /* \"Modifier-Exercise.sol\":627:1632  contract TweetStorage {... */\n  mstore(0x40, 0x80)\n  callvalue\n  dup1\n  iszero\n  tag_1\n  jumpi\n  revert(0x00, 0x00)\ntag_1:\n  pop\n  dataSize(sub_0)\n  dup1\n  dataOffset(sub_0)\n  0x00\n  codecopy\n  0x00\n  return\nstop\n\nsub_0: assembly {\n        /* \"Modifier-Exercise.sol\":627:1632  contract TweetStorage {... */\n      mstore(0x40, 0x80)\n      callvalue\n      dup1\n      iszero\n      tag_1\n      jumpi\n      revert(0x00, 0x00)\n    tag_1:\n      pop\n      jumpi(tag_2, lt(calldatasize, 0x04))\n      shr(0xe0, calldataload(0x00))\n      dup1\n      0x05a1b4a9\n      eq\n      tag_3\n      jumpi\n      dup1\n      0x58b93cfd\n      eq\n      tag_4\n      jumpi\n      dup1\n      0x7c9cd2bc\n      eq\n      tag_5\n      jumpi\n    tag_2:\n      revert(0x00, 0x00)\n        /* \"Modifier-Exercise.sol\":811:852  mapping(address => Tweet[]) public tweets */\n    tag_3:\n      tag_6\n      0x04\n      dup1\n      calldatasize\n      sub\n      dup2\n      add\n      swap1\n      tag_7\n      swap2\n      swap1\n      tag_8\n      jump\t// in\n    tag_7:\n      tag_9\n      jump\t// in\n    tag_6:\n      mload(0x40)\n      tag_10\n      swap4\n      swap3\n      swap2\n      swap1\n      tag_11\n      jump\t// in\n    tag_10:\n      mload(0x40)\n      dup1\n      swap2\n      sub\n      swap1\n      return\n        /* \"Modifier-Exercise.sol\":1507:1629  function getTweetsByAuthor(address _author) public view returns (Tweet[] memory) {... */\n    tag_4:\n      tag_12\n      0x04\n      dup1\n      calldatasize\n      sub\n      dup2\n      add\n      swap1\n      tag_13\n      swap2\n      swap1\n      tag_14\n      jump\t// in\n    tag_13:\n      tag_15\n      jump\t// in\n    tag_12:\n      mload(0x40)\n      tag_16\n      swap2\n      swap1\n      tag_17\n      jump\t// in\n    tag_16:\n      mload(0x40)\n      dup1\n      swap2\n      sub\n      swap1\n      return\n        /* \"Modifier-Exercise.sol\":1036:1451  function createTweet(string memory _content) public {... */\n    tag_5:\n      tag_18\n      0x04\n      dup1\n      calldatasize\n      sub\n      dup2\n      add\n      swap1\n      tag_19\n      swap2\n      swap1\n      tag_20\n      jump\t// in\n    tag_19:\n      tag_21\n      jump\t// in\n    tag_18:\n      stop\n        /* \"Modifier-Exercise.sol\":811:852  mapping(address => Tweet[]) public tweets */\n    tag_9:\n      mstore(0x20, 0x00)\n      dup2\n      0x00\n      mstore\n      keccak256(0x00, 0x40)\n      dup2\n      dup2\n      sload\n      dup2\n      lt\n      tag_22\n      jumpi\n      0x00\n      dup1\n      revert\n    tag_22:\n      swap1\n      0x00\n      mstore\n      keccak256(0x00, 0x20)\n      swap1\n      0x03\n      mul\n      add\n      0x00\n      swap2\n      pop\n      swap2\n      pop\n      pop\n      dup1\n      0x00\n      add\n      0x00\n      swap1\n      sload\n      swap1\n      0x0100\n      exp\n      swap1\n      div\n      0xffffffffffffffffffffffffffffffffffffffff\n      and\n      swap1\n      dup1\n      0x01\n      add\n      dup1\n      sload\n      tag_24\n      swap1\n      tag_25\n      jump\t// in\n    tag_24:\n      dup1\n      0x1f\n      add\n      0x20\n      dup1\n      swap2\n      div\n      mul\n      0x20\n      add\n      mload(0x40)\n      swap1\n      dup2\n      add\n      0x40\n      mstore\n      dup1\n      swap3\n      swap2\n      swap1\n      dup2\n      dup2\n      mstore\n      0x20\n      add\n      dup3\n      dup1\n      sload\n      tag_26\n      swap1\n      tag_25\n      jump\t// in\n    tag_26:\n      dup1\n      iszero\n      tag_27\n      jumpi\n      dup1\n      0x1f\n      lt\n      tag_28\n      jumpi\n      0x0100\n      dup1\n      dup4\n      sload\n      div\n      mul\n      dup4\n      mstore\n      swap2\n      0x20\n      add\n      swap2\n      jump(tag_27)\n    tag_28:\n      dup3\n      add\n      swap2\n      swap1\n      0x00\n      mstore\n      keccak256(0x00, 0x20)\n      swap1\n    tag_29:\n      dup2\n      sload\n      dup2\n      mstore\n      swap1\n      0x01\n      add\n      swap1\n      0x20\n      add\n      dup1\n      dup4\n      gt\n      tag_29\n      jumpi\n      dup3\n      swap1\n      sub\n      0x1f\n      and\n      dup3\n      add\n      swap2\n    tag_27:\n      pop\n      pop\n      pop\n      pop\n      pop\n      swap1\n      dup1\n      0x02\n      add\n      sload\n      swap1\n      pop\n      dup4\n      jump\t// out\n        /* \"Modifier-Exercise.sol\":1507:1629  function getTweetsByAuthor(address _author) public view returns (Tweet[] memory) {... */\n    tag_15:\n        /* \"Modifier-Exercise.sol\":1572:1586  Tweet[] memory */\n      0x60\n        /* \"Modifier-Exercise.sol\":1606:1612  tweets */\n      0x00\n        /* \"Modifier-Exercise.sol\":1606:1621  tweets[_author] */\n      0x00\n        /* \"Modifier-Exercise.sol\":1613:1620  _author */\n      dup4\n        /* \"Modifier-Exercise.sol\":1606:1621  tweets[_author] */\n      0xffffffffffffffffffffffffffffffffffffffff\n      and\n      0xffffffffffffffffffffffffffffffffffffffff\n      and\n      dup2\n      mstore\n      0x20\n      add\n      swap1\n      dup2\n      mstore\n      0x20\n      add\n      0x00\n      keccak256\n        /* \"Modifier-Exercise.sol\":1599:1621  return tweets[_author] */\n      dup1\n      sload\n      dup1\n      0x20\n      mul\n      0x20\n      add\n      mload(0x40)\n      swap1\n      dup2\n      add\n      0x40\n      mstore\n      dup1\n      swap3\n      swap2\n      swap1\n      dup2\n      dup2\n      mstore\n      0x20\n      add\n      0x00\n      swap1\n    tag_31:\n      dup3\n      dup3\n      lt\n      iszero\n      tag_32\n      jumpi\n      dup4\n      dup3\n      swap1\n      0x00\n      mstore\n      keccak256(0x00, 0x20)\n      swap1\n      0x03\n      mul\n      add\n      mload(0x40)\n      dup1\n      0x60\n      add\n      0x40\n      mstore\n      swap1\n      dup2\n      0x00\n      dup3\n      add\n      0x00\n      swap1\n      sload\n      swap1\n      0x0100\n      exp\n      swap1\n      div\n      0xffffffffffffffffffffffffffffffffffffffff\n      and\n      0xffffffffffffffffffffffffffffffffffffffff\n      and\n      0xffffffffffffffffffffffffffffffffffffffff\n      and\n      dup2\n      mstore\n      0x20\n      add\n      0x01\n      dup3\n      add\n      dup1\n      sload\n      tag_34\n      swap1\n      tag_25\n      jump\t// in\n    tag_34:\n      dup1\n      0x1f\n      add\n      0x20\n      dup1\n      swap2\n      div\n      mul\n      0x20\n      add\n      mload(0x40)\n      swap1\n      dup2\n      add\n      0x40\n      mstore\n      dup1\n      swap3\n      swap2\n      swap1\n      dup2\n      dup2\n      mstore\n      0x20\n      add\n      dup3\n      dup1\n      sload\n      tag_35\n      swap1\n      tag_25\n      jump\t// in\n    tag_35:\n      dup1\n      iszero\n      tag_36\n      jumpi\n      dup1\n      0x1f\n      lt\n      tag_37\n      jumpi\n      0x0100\n      dup1\n      dup4\n      sload\n      div\n      mul\n      dup4\n      mstore\n      swap2\n      0x20\n      add\n      swap2\n      jump(tag_36)\n    tag_37:\n      dup3\n      add\n      swap2\n      swap1\n      0x00\n      mstore\n      keccak256(0x00, 0x20)\n      swap1\n    tag_38:\n      dup2\n      sload\n      dup2\n      mstore\n      swap1\n      0x01\n      add\n      swap1\n      0x20\n      add\n      dup1\n      dup4\n      gt\n      tag_38\n      jumpi\n      dup3\n      swap1\n      sub\n      0x1f\n      and\n      dup3\n      add\n      swap2\n    tag_36:\n      pop\n      pop\n      pop\n      pop\n      pop\n      dup2\n      mstore\n      0x20\n      add\n      0x02\n      dup3\n      add\n      sload\n      dup2\n      mstore\n      pop\n      pop\n      dup2\n      mstore\n      0x20\n      add\n      swap1\n      0x01\n      add\n      swap1\n      jump(tag_31)\n    tag_32:\n      pop\n      pop\n      pop\n      pop\n      swap1\n      pop\n        /* \"Modifier-Exercise.sol\":1507:1629  function getTweetsByAuthor(address _author) public view returns (Tweet[] memory) {... */\n      swap2\n      swap1\n      pop\n      jump\t// out\n        /* \"Modifier-Exercise.sol\":1036:1451  function createTweet(string memory _content) public {... */\n    tag_21:\n        /* \"Modifier-Exercise.sol\":1132:1133  0 */\n      0x00\n        /* \"Modifier-Exercise.sol\":1113:1121  _content */\n      dup2\n        /* \"Modifier-Exercise.sol\":1107:1129  bytes(_content).length */\n      mload\n        /* \"Modifier-Exercise.sol\":1107:1133  bytes(_content).length > 0 */\n      gt\n        /* \"Modifier-Exercise.sol\":1099:1167  require(bytes(_content).length > 0, \"Tweet content cannot be empty\") */\n      tag_40\n      jumpi\n      mload(0x40)\n      0x08c379a000000000000000000000000000000000000000000000000000000000\n      dup2\n      mstore\n      0x04\n      add\n      tag_41\n      swap1\n      tag_42\n      jump\t// in\n    tag_41:\n      mload(0x40)\n      dup1\n      swap2\n      sub\n      swap1\n      revert\n    tag_40:\n        /* \"Modifier-Exercise.sol\":1180:1201  Tweet memory newTweet */\n      0x00\n        /* \"Modifier-Exercise.sol\":1204:1328  Tweet({... */\n      mload(0x40)\n      dup1\n      0x60\n      add\n      0x40\n      mstore\n      dup1\n        /* \"Modifier-Exercise.sol\":1233:1243  msg.sender */\n      caller\n        /* \"Modifier-Exercise.sol\":1204:1328  Tweet({... */\n      0xffffffffffffffffffffffffffffffffffffffff\n      and\n      dup2\n      mstore\n      0x20\n      add\n        /* \"Modifier-Exercise.sol\":1267:1275  _content */\n      dup4\n        /* \"Modifier-Exercise.sol\":1204:1328  Tweet({... */\n      dup2\n      mstore\n      0x20\n      add\n        /* \"Modifier-Exercise.sol\":1301:1316  block.timestamp */\n      timestamp\n        /* \"Modifier-Exercise.sol\":1204:1328  Tweet({... */\n      dup2\n      mstore\n      pop\n        /* \"Modifier-Exercise.sol\":1180:1328  Tweet memory newTweet = Tweet({... */\n      swap1\n      pop\n        /* \"Modifier-Exercise.sol\":1341:1347  tweets */\n      0x00\n        /* \"Modifier-Exercise.sol\":1341:1359  tweets[msg.sender] */\n      0x00\n        /* \"Modifier-Exercise.sol\":1348:1358  msg.sender */\n      caller\n        /* \"Modifier-Exercise.sol\":1341:1359  tweets[msg.sender] */\n      0xffffffffffffffffffffffffffffffffffffffff\n      and\n      0xffffffffffffffffffffffffffffffffffffffff\n      and\n      dup2\n      mstore\n      0x20\n      add\n      swap1\n      dup2\n      mstore\n      0x20\n      add\n      0x00\n      keccak256\n        /* \"Modifier-Exercise.sol\":1365:1373  newTweet */\n      dup2\n        /* \"Modifier-Exercise.sol\":1341:1374  tweets[msg.sender].push(newTweet) */\n      swap1\n      dup1\n      0x01\n      dup2\n      sload\n      add\n      dup1\n      dup3\n      sstore\n      dup1\n      swap2\n      pop\n      pop\n      0x01\n      swap1\n      sub\n      swap1\n      0x00\n      mstore\n      keccak256(0x00, 0x20)\n      swap1\n      0x03\n      mul\n      add\n      0x00\n      swap1\n      swap2\n      swap1\n      swap2\n      swap1\n      swap2\n      pop\n      0x00\n      dup3\n      add\n      mload\n      dup2\n      0x00\n      add\n      exp(0x0100, 0x00)\n      dup2\n      sload\n      dup2\n      0xffffffffffffffffffffffffffffffffffffffff\n      mul\n      not\n      and\n      swap1\n      dup4\n      0xffffffffffffffffffffffffffffffffffffffff\n      and\n      mul\n      or\n      swap1\n      sstore\n      pop\n      0x20\n      dup3\n      add\n      mload\n      dup2\n      0x01\n      add\n      swap1\n      dup2\n      tag_44\n      swap2\n      swap1\n      tag_45\n      jump\t// in\n    tag_44:\n      pop\n      0x40\n      dup3\n      add\n      mload\n      dup2\n      0x02\n      add\n      sstore\n      pop\n      pop\n        /* \"Modifier-Exercise.sol\":1405:1415  msg.sender */\n      caller\n        /* \"Modifier-Exercise.sol\":1392:1443  TweetCreated(msg.sender, _content, block.timestamp) */\n      0xffffffffffffffffffffffffffffffffffffffff\n      and\n      0xc933feff23f11bfe7d86d82bdd0aff8b92373983b105d321731056945472dca6\n        /* \"Modifier-Exercise.sol\":1417:1425  _content */\n      dup4\n        /* \"Modifier-Exercise.sol\":1427:1442  block.timestamp */\n      timestamp\n        /* \"Modifier-Exercise.sol\":1392:1443  TweetCreated(msg.sender, _content, block.timestamp) */\n      mload(0x40)\n      tag_46\n      swap3\n      swap2\n      swap1\n      tag_47\n      jump\t// in\n    tag_46:\n      mload(0x40)\n      dup1\n      swap2\n      sub\n      swap1\n      log2\n        /* \"Modifier-Exercise.sol\":1088:1451  {... */\n      pop\n        /* \"Modifier-Exercise.sol\":1036:1451  function createTweet(string memory _content) public {... */\n      pop\n      jump\t// out\n        /* \"#utility.yul\":7:82   */\n    tag_48:\n        /* \"#utility.yul\":40:46   */\n      0x00\n        /* \"#utility.yul\":73:75   */\n      0x40\n        /* \"#utility.yul\":67:76   */\n      mload\n        /* \"#utility.yul\":57:76   */\n      swap1\n      pop\n        /* \"#utility.yul\":7:82   */\n      swap1\n      jump\t// out\n        /* \"#utility.yul\":88:205   */\n    tag_49:\n        /* \"#utility.yul\":197:198   */\n      0x00\n        /* \"#utility.yul\":194:195   */\n      0x00\n        /* \"#utility.yul\":187:199   */\n      revert\n        /* \"#utility.yul\":211:328   */\n    tag_50:\n        /* \"#utility.yul\":320:321   */\n      0x00\n        /* \"#utility.yul\":317:318   */\n      0x00\n        /* \"#utility.yul\":310:322   */\n      revert\n        /* \"#utility.yul\":334:460   */\n    tag_51:\n        /* \"#utility.yul\":371:378   */\n      0x00\n        /* \"#utility.yul\":411:453   */\n      0xffffffffffffffffffffffffffffffffffffffff\n        /* \"#utility.yul\":404:409   */\n      dup3\n        /* \"#utility.yul\":400:454   */\n      and\n        /* \"#utility.yul\":389:454   */\n      swap1\n      pop\n        /* \"#utility.yul\":334:460   */\n      swap2\n      swap1\n      pop\n      jump\t// out\n        /* \"#utility.yul\":466:562   */\n    tag_52:\n        /* \"#utility.yul\":503:510   */\n      0x00\n        /* \"#utility.yul\":532:556   */\n      tag_109\n        /* \"#utility.yul\":550:555   */\n      dup3\n        /* \"#utility.yul\":532:556   */\n      tag_51\n      jump\t// in\n    tag_109:\n        /* \"#utility.yul\":521:556   */\n      swap1\n      pop\n        /* \"#utility.yul\":466:562   */\n      swap2\n      swap1\n      pop\n      jump\t// out\n        /* \"#utility.yul\":568:690   */\n    tag_53:\n        /* \"#utility.yul\":641:665   */\n      tag_111\n        /* \"#utility.yul\":659:664   */\n      dup2\n        /* \"#utility.yul\":641:665   */\n      tag_52\n      jump\t// in\n    tag_111:\n        /* \"#utility.yul\":634:639   */\n      dup2\n        /* \"#utility.yul\":631:666   */\n      eq\n        /* \"#utility.yul\":621:684   */\n      tag_112\n      jumpi\n        /* \"#utility.yul\":680:681   */\n      0x00\n        /* \"#utility.yul\":677:678   */\n      0x00\n        /* \"#utility.yul\":670:682   */\n      revert\n        /* \"#utility.yul\":621:684   */\n    tag_112:\n        /* \"#utility.yul\":568:690   */\n      pop\n      jump\t// out\n        /* \"#utility.yul\":696:835   */\n    tag_54:\n        /* \"#utility.yul\":742:747   */\n      0x00\n        /* \"#utility.yul\":780:786   */\n      dup2\n        /* \"#utility.yul\":767:787   */\n      calldataload\n        /* \"#utility.yul\":758:787   */\n      swap1\n      pop\n        /* \"#utility.yul\":796:829   */\n      tag_114\n        /* \"#utility.yul\":823:828   */\n      dup2\n        /* \"#utility.yul\":796:829   */\n      tag_53\n      jump\t// in\n    tag_114:\n        /* \"#utility.yul\":696:835   */\n      swap3\n      swap2\n      pop\n      pop\n      jump\t// out\n        /* \"#utility.yul\":841:918   */\n    tag_55:\n        /* \"#utility.yul\":878:885   */\n      0x00\n        /* \"#utility.yul\":907:912   */\n      dup2\n        /* \"#utility.yul\":896:912   */\n      swap1\n      pop\n        /* \"#utility.yul\":841:918   */\n      swap2\n      swap1\n      pop\n      jump\t// out\n        /* \"#utility.yul\":924:1046   */\n    tag_56:\n        /* \"#utility.yul\":997:1021   */\n      tag_117\n        /* \"#utility.yul\":1015:1020   */\n      dup2\n        /* \"#utility.yul\":997:1021   */\n      tag_55\n      jump\t// in\n    tag_117:\n        /* \"#utility.yul\":990:995   */\n      dup2\n        /* \"#utility.yul\":987:1022   */\n      eq\n        /* \"#utility.yul\":977:1040   */\n      tag_118\n      jumpi\n        /* \"#utility.yul\":1036:1037   */\n      0x00\n        /* \"#utility.yul\":1033:1034   */\n      0x00\n        /* \"#utility.yul\":1026:1038   */\n      revert\n        /* \"#utility.yul\":977:1040   */\n    tag_118:\n        /* \"#utility.yul\":924:1046   */\n      pop\n      jump\t// out\n        /* \"#utility.yul\":1052:1191   */\n    tag_57:\n        /* \"#utility.yul\":1098:1103   */\n      0x00\n        /* \"#utility.yul\":1136:1142   */\n      dup2\n        /* \"#utility.yul\":1123:1143   */\n      calldataload\n        /* \"#utility.yul\":1114:1143   */\n      swap1\n      pop\n        /* \"#utility.yul\":1152:1185   */\n      tag_120\n        /* \"#utility.yul\":1179:1184   */\n      dup2\n        /* \"#utility.yul\":1152:1185   */\n      tag_56\n      jump\t// in\n    tag_120:\n        /* \"#utility.yul\":1052:1191   */\n      swap3\n      swap2\n      pop\n      pop\n      jump\t// out\n        /* \"#utility.yul\":1197:1671   */\n    tag_8:\n        /* \"#utility.yul\":1265:1271   */\n      0x00\n        /* \"#utility.yul\":1273:1279   */\n      0x00\n        /* \"#utility.yul\":1322:1324   */\n      0x40\n        /* \"#utility.yul\":1310:1319   */\n      dup4\n        /* \"#utility.yul\":1301:1308   */\n      dup6\n        /* \"#utility.yul\":1297:1320   */\n      sub\n        /* \"#utility.yul\":1293:1325   */\n      slt\n        /* \"#utility.yul\":1290:1409   */\n      iszero\n      tag_122\n      jumpi\n        /* \"#utility.yul\":1328:1407   */\n      tag_123\n      tag_49\n      jump\t// in\n    tag_123:\n        /* \"#utility.yul\":1290:1409   */\n    tag_122:\n        /* \"#utility.yul\":1448:1449   */\n      0x00\n        /* \"#utility.yul\":1473:1526   */\n      tag_124\n        /* \"#utility.yul\":1518:1525   */\n      dup6\n        /* \"#utility.yul\":1509:1515   */\n      dup3\n        /* \"#utility.yul\":1498:1507   */\n      dup7\n        /* \"#utility.yul\":1494:1516   */\n      add\n        /* \"#utility.yul\":1473:1526   */\n      tag_54\n      jump\t// in\n    tag_124:\n        /* \"#utility.yul\":1463:1526   */\n      swap3\n      pop\n        /* \"#utility.yul\":1419:1536   */\n      pop\n        /* \"#utility.yul\":1575:1577   */\n      0x20\n        /* \"#utility.yul\":1601:1654   */\n      tag_125\n        /* \"#utility.yul\":1646:1653   */\n      dup6\n        /* \"#utility.yul\":1637:1643   */\n      dup3\n        /* \"#utility.yul\":1626:1635   */\n      dup7\n        /* \"#utility.yul\":1622:1644   */\n      add\n        /* \"#utility.yul\":1601:1654   */\n      tag_57\n      jump\t// in\n    tag_125:\n        /* \"#utility.yul\":1591:1654   */\n      swap2\n      pop\n        /* \"#utility.yul\":1546:1664   */\n      pop\n        /* \"#utility.yul\":1197:1671   */\n      swap3\n      pop\n      swap3\n      swap1\n      pop\n      jump\t// out\n        /* \"#utility.yul\":1677:1795   */\n    tag_58:\n        /* \"#utility.yul\":1764:1788   */\n      tag_127\n        /* \"#utility.yul\":1782:1787   */\n      dup2\n        /* \"#utility.yul\":1764:1788   */\n      tag_52\n      jump\t// in\n    tag_127:\n        /* \"#utility.yul\":1759:1762   */\n      dup3\n        /* \"#utility.yul\":1752:1789   */\n      mstore\n        /* \"#utility.yul\":1677:1795   */\n      pop\n      pop\n      jump\t// out\n        /* \"#utility.yul\":1801:1900   */\n    tag_59:\n        /* \"#utility.yul\":1853:1859   */\n      0x00\n        /* \"#utility.yul\":1887:1892   */\n      dup2\n        /* \"#utility.yul\":1881:1893   */\n      mload\n        /* \"#utility.yul\":1871:1893   */\n      swap1\n      pop\n        /* \"#utility.yul\":1801:1900   */\n      swap2\n      swap1\n      pop\n      jump\t// out\n        /* \"#utility.yul\":1906:2075   */\n    tag_60:\n        /* \"#utility.yul\":1990:2001   */\n      0x00\n        /* \"#utility.yul\":2024:2030   */\n      dup3\n        /* \"#utility.yul\":2019:2022   */\n      dup3\n        /* \"#utility.yul\":2012:2031   */\n      mstore\n        /* \"#utility.yul\":2064:2068   */\n      0x20\n        /* \"#utility.yul\":2059:2062   */\n      dup3\n        /* \"#utility.yul\":2055:2069   */\n      add\n        /* \"#utility.yul\":2040:2069   */\n      swap1\n      pop\n        /* \"#utility.yul\":1906:2075   */\n      swap3\n      swap2\n      pop\n      pop\n      jump\t// out\n        /* \"#utility.yul\":2081:2220   */\n    tag_61:\n        /* \"#utility.yul\":2170:2176   */\n      dup3\n        /* \"#utility.yul\":2165:2168   */\n      dup2\n        /* \"#utility.yul\":2160:2163   */\n      dup4\n        /* \"#utility.yul\":2154:2177   */\n      mcopy\n        /* \"#utility.yul\":2211:2212   */\n      0x00\n        /* \"#utility.yul\":2202:2208   */\n      dup4\n        /* \"#utility.yul\":2197:2200   */\n      dup4\n        /* \"#utility.yul\":2193:2209   */\n      add\n        /* \"#utility.yul\":2186:2213   */\n      mstore\n        /* \"#utility.yul\":2081:2220   */\n      pop\n      pop\n      pop\n      jump\t// out\n        /* \"#utility.yul\":2226:2328   */\n    tag_62:\n        /* \"#utility.yul\":2267:2273   */\n      0x00\n        /* \"#utility.yul\":2318:2320   */\n      0x1f\n        /* \"#utility.yul\":2314:2321   */\n      not\n        /* \"#utility.yul\":2309:2311   */\n      0x1f\n        /* \"#utility.yul\":2302:2307   */\n      dup4\n        /* \"#utility.yul\":2298:2312   */\n      add\n        /* \"#utility.yul\":2294:2322   */\n      and\n        /* \"#utility.yul\":2284:2322   */\n      swap1\n      pop\n        /* \"#utility.yul\":2226:2328   */\n      swap2\n      swap1\n      pop\n      jump\t// out\n        /* \"#utility.yul\":2334:2711   */\n    tag_63:\n        /* \"#utility.yul\":2422:2425   */\n      0x00\n        /* \"#utility.yul\":2450:2489   */\n      tag_133\n        /* \"#utility.yul\":2483:2488   */\n      dup3\n        /* \"#utility.yul\":2450:2489   */\n      tag_59\n      jump\t// in\n    tag_133:\n        /* \"#utility.yul\":2505:2576   */\n      tag_134\n        /* \"#utility.yul\":2569:2575   */\n      dup2\n        /* \"#utility.yul\":2564:2567   */\n      dup6\n        /* \"#utility.yul\":2505:2576   */\n      tag_60\n      jump\t// in\n    tag_134:\n        /* \"#utility.yul\":2498:2576   */\n      swap4\n      pop\n        /* \"#utility.yul\":2585:2650   */\n      tag_135\n        /* \"#utility.yul\":2643:2649   */\n      dup2\n        /* \"#utility.yul\":2638:2641   */\n      dup6\n        /* \"#utility.yul\":2631:2635   */\n      0x20\n        /* \"#utility.yul\":2624:2629   */\n      dup7\n        /* \"#utility.yul\":2620:2636   */\n      add\n        /* \"#utility.yul\":2585:2650   */\n      tag_61\n      jump\t// in\n    tag_135:\n        /* \"#utility.yul\":2675:2704   */\n      tag_136\n        /* \"#utility.yul\":2697:2703   */\n      dup2\n        /* \"#utility.yul\":2675:2704   */\n      tag_62\n      jump\t// in\n    tag_136:\n        /* \"#utility.yul\":2670:2673   */\n      dup5\n        /* \"#utility.yul\":2666:2705   */\n      add\n        /* \"#utility.yul\":2659:2705   */\n      swap2\n      pop\n        /* \"#utility.yul\":2426:2711   */\n      pop\n        /* \"#utility.yul\":2334:2711   */\n      swap3\n      swap2\n      pop\n      pop\n      jump\t// out\n        /* \"#utility.yul\":2717:2835   */\n    tag_64:\n        /* \"#utility.yul\":2804:2828   */\n      tag_138\n        /* \"#utility.yul\":2822:2827   */\n      dup2\n        /* \"#utility.yul\":2804:2828   */\n      tag_55\n      jump\t// in\n    tag_138:\n        /* \"#utility.yul\":2799:2802   */\n      dup3\n        /* \"#utility.yul\":2792:2829   */\n      mstore\n        /* \"#utility.yul\":2717:2835   */\n      pop\n      pop\n      jump\t// out\n        /* \"#utility.yul\":2841:3374   */\n    tag_11:\n        /* \"#utility.yul\":3010:3014   */\n      0x00\n        /* \"#utility.yul\":3048:3050   */\n      0x60\n        /* \"#utility.yul\":3037:3046   */\n      dup3\n        /* \"#utility.yul\":3033:3051   */\n      add\n        /* \"#utility.yul\":3025:3051   */\n      swap1\n      pop\n        /* \"#utility.yul\":3061:3132   */\n      tag_140\n        /* \"#utility.yul\":3129:3130   */\n      0x00\n        /* \"#utility.yul\":3118:3127   */\n      dup4\n        /* \"#utility.yul\":3114:3131   */\n      add\n        /* \"#utility.yul\":3105:3111   */\n      dup7\n        /* \"#utility.yul\":3061:3132   */\n      tag_58\n      jump\t// in\n    tag_140:\n        /* \"#utility.yul\":3179:3188   */\n      dup2\n        /* \"#utility.yul\":3173:3177   */\n      dup2\n        /* \"#utility.yul\":3169:3189   */\n      sub\n        /* \"#utility.yul\":3164:3166   */\n      0x20\n        /* \"#utility.yul\":3153:3162   */\n      dup4\n        /* \"#utility.yul\":3149:3167   */\n      add\n        /* \"#utility.yul\":3142:3190   */\n      mstore\n        /* \"#utility.yul\":3207:3285   */\n      tag_141\n        /* \"#utility.yul\":3280:3284   */\n      dup2\n        /* \"#utility.yul\":3271:3277   */\n      dup6\n        /* \"#utility.yul\":3207:3285   */\n      tag_63\n      jump\t// in\n    tag_141:\n        /* \"#utility.yul\":3199:3285   */\n      swap1\n      pop\n        /* \"#utility.yul\":3295:3367   */\n      tag_142\n        /* \"#utility.yul\":3363:3365   */\n      0x40\n        /* \"#utility.yul\":3352:3361   */\n      dup4\n        /* \"#utility.yul\":3348:3366   */\n      add\n        /* \"#utility.yul\":3339:3345   */\n      dup5\n        /* \"#utility.yul\":3295:3367   */\n      tag_64\n      jump\t// in\n    tag_142:\n        /* \"#utility.yul\":2841:3374   */\n      swap5\n      swap4\n      pop\n      pop\n      pop\n      pop\n      jump\t// out\n        /* \"#utility.yul\":3380:3709   */\n    tag_14:\n        /* \"#utility.yul\":3439:3445   */\n      0x00\n        /* \"#utility.yul\":3488:3490   */\n      0x20\n        /* \"#utility.yul\":3476:3485   */\n      dup3\n        /* \"#utility.yul\":3467:3474   */\n      dup5\n        /* \"#utility.yul\":3463:3486   */\n      sub\n        /* \"#utility.yul\":3459:3491   */\n      slt\n        /* \"#utility.yul\":3456:3575   */\n      iszero\n      tag_144\n      jumpi\n        /* \"#utility.yul\":3494:3573   */\n      tag_145\n      tag_49\n      jump\t// in\n    tag_145:\n        /* \"#utility.yul\":3456:3575   */\n    tag_144:\n        /* \"#utility.yul\":3614:3615   */\n      0x00\n        /* \"#utility.yul\":3639:3692   */\n      tag_146\n        /* \"#utility.yul\":3684:3691   */\n      dup5\n        /* \"#utility.yul\":3675:3681   */\n      dup3\n        /* \"#utility.yul\":3664:3673   */\n      dup6\n        /* \"#utility.yul\":3660:3682   */\n      add\n        /* \"#utility.yul\":3639:3692   */\n      tag_54\n      jump\t// in\n    tag_146:\n        /* \"#utility.yul\":3629:3692   */\n      swap2\n      pop\n        /* \"#utility.yul\":3585:3702   */\n      pop\n        /* \"#utility.yul\":3380:3709   */\n      swap3\n      swap2\n      pop\n      pop\n      jump\t// out\n        /* \"#utility.yul\":3715:3849   */\n    tag_65:\n        /* \"#utility.yul\":3802:3808   */\n      0x00\n        /* \"#utility.yul\":3836:3841   */\n      dup2\n        /* \"#utility.yul\":3830:3842   */\n      mload\n        /* \"#utility.yul\":3820:3842   */\n      swap1\n      pop\n        /* \"#utility.yul\":3715:3849   */\n      swap2\n      swap1\n      pop\n      jump\t// out\n        /* \"#utility.yul\":3855:4059   */\n    tag_66:\n        /* \"#utility.yul\":3974:3985   */\n      0x00\n        /* \"#utility.yul\":4008:4014   */\n      dup3\n        /* \"#utility.yul\":4003:4006   */\n      dup3\n        /* \"#utility.yul\":3996:4015   */\n      mstore\n        /* \"#utility.yul\":4048:4052   */\n      0x20\n        /* \"#utility.yul\":4043:4046   */\n      dup3\n        /* \"#utility.yul\":4039:4053   */\n      add\n        /* \"#utility.yul\":4024:4053   */\n      swap1\n      pop\n        /* \"#utility.yul\":3855:4059   */\n      swap3\n      swap2\n      pop\n      pop\n      jump\t// out\n        /* \"#utility.yul\":4065:4217   */\n    tag_67:\n        /* \"#utility.yul\":4152:4156   */\n      0x00\n        /* \"#utility.yul\":4175:4178   */\n      dup2\n        /* \"#utility.yul\":4167:4178   */\n      swap1\n      pop\n        /* \"#utility.yul\":4205:4209   */\n      0x20\n        /* \"#utility.yul\":4200:4203   */\n      dup3\n        /* \"#utility.yul\":4196:4210   */\n      add\n        /* \"#utility.yul\":4188:4210   */\n      swap1\n      pop\n        /* \"#utility.yul\":4065:4217   */\n      swap2\n      swap1\n      pop\n      jump\t// out\n        /* \"#utility.yul\":4223:4331   */\n    tag_68:\n        /* \"#utility.yul\":4300:4324   */\n      tag_151\n        /* \"#utility.yul\":4318:4323   */\n      dup2\n        /* \"#utility.yul\":4300:4324   */\n      tag_52\n      jump\t// in\n    tag_151:\n        /* \"#utility.yul\":4295:4298   */\n      dup3\n        /* \"#utility.yul\":4288:4325   */\n      mstore\n        /* \"#utility.yul\":4223:4331   */\n      pop\n      pop\n      jump\t// out\n        /* \"#utility.yul\":4337:4496   */\n    tag_69:\n        /* \"#utility.yul\":4411:4422   */\n      0x00\n        /* \"#utility.yul\":4445:4451   */\n      dup3\n        /* \"#utility.yul\":4440:4443   */\n      dup3\n        /* \"#utility.yul\":4433:4452   */\n      mstore\n        /* \"#utility.yul\":4485:4489   */\n      0x20\n        /* \"#utility.yul\":4480:4483   */\n      dup3\n        /* \"#utility.yul\":4476:4490   */\n      add\n        /* \"#utility.yul\":4461:4490   */\n      swap1\n      pop\n        /* \"#utility.yul\":4337:4496   */\n      swap3\n      swap2\n      pop\n      pop\n      jump\t// out\n        /* \"#utility.yul\":4502:4859   */\n    tag_70:\n        /* \"#utility.yul\":4580:4583   */\n      0x00\n        /* \"#utility.yul\":4608:4647   */\n      tag_154\n        /* \"#utility.yul\":4641:4646   */\n      dup3\n        /* \"#utility.yul\":4608:4647   */\n      tag_59\n      jump\t// in\n    tag_154:\n        /* \"#utility.yul\":4663:4724   */\n      tag_155\n        /* \"#utility.yul\":4717:4723   */\n      dup2\n        /* \"#utility.yul\":4712:4715   */\n      dup6\n        /* \"#utility.yul\":4663:4724   */\n      tag_69\n      jump\t// in\n    tag_155:\n        /* \"#utility.yul\":4656:4724   */\n      swap4\n      pop\n        /* \"#utility.yul\":4733:4798   */\n      tag_156\n        /* \"#utility.yul\":4791:4797   */\n      dup2\n        /* \"#utility.yul\":4786:4789   */\n      dup6\n        /* \"#utility.yul\":4779:4783   */\n      0x20\n        /* \"#utility.yul\":4772:4777   */\n      dup7\n        /* \"#utility.yul\":4768:4784   */\n      add\n        /* \"#utility.yul\":4733:4798   */\n      tag_61\n      jump\t// in\n    tag_156:\n        /* \"#utility.yul\":4823:4852   */\n      tag_157\n        /* \"#utility.yul\":4845:4851   */\n      dup2\n        /* \"#utility.yul\":4823:4852   */\n      tag_62\n      jump\t// in\n    tag_157:\n        /* \"#utility.yul\":4818:4821   */\n      dup5\n        /* \"#utility.yul\":4814:4853   */\n      add\n        /* \"#utility.yul\":4807:4853   */\n      swap2\n      pop\n        /* \"#utility.yul\":4584:4859   */\n      pop\n        /* \"#utility.yul\":4502:4859   */\n      swap3\n      swap2\n      pop\n      pop\n      jump\t// out\n        /* \"#utility.yul\":4865:4973   */\n    tag_71:\n        /* \"#utility.yul\":4942:4966   */\n      tag_159\n        /* \"#utility.yul\":4960:4965   */\n      dup2\n        /* \"#utility.yul\":4942:4966   */\n      tag_55\n      jump\t// in\n    tag_159:\n        /* \"#utility.yul\":4937:4940   */\n      dup3\n        /* \"#utility.yul\":4930:4967   */\n      mstore\n        /* \"#utility.yul\":4865:4973   */\n      pop\n      pop\n      jump\t// out\n        /* \"#utility.yul\":5041:5811   */\n    tag_72:\n        /* \"#utility.yul\":5140:5143   */\n      0x00\n        /* \"#utility.yul\":5176:5180   */\n      0x60\n        /* \"#utility.yul\":5171:5174   */\n      dup4\n        /* \"#utility.yul\":5167:5181   */\n      add\n        /* \"#utility.yul\":5265:5269   */\n      0x00\n        /* \"#utility.yul\":5258:5263   */\n      dup4\n        /* \"#utility.yul\":5254:5270   */\n      add\n        /* \"#utility.yul\":5248:5271   */\n      mload\n        /* \"#utility.yul\":5284:5347   */\n      tag_161\n        /* \"#utility.yul\":5341:5345   */\n      0x00\n        /* \"#utility.yul\":5336:5339   */\n      dup7\n        /* \"#utility.yul\":5332:5346   */\n      add\n        /* \"#utility.yul\":5318:5330   */\n      dup3\n        /* \"#utility.yul\":5284:5347   */\n      tag_68\n      jump\t// in\n    tag_161:\n        /* \"#utility.yul\":5191:5357   */\n      pop\n        /* \"#utility.yul\":5442:5446   */\n      0x20\n        /* \"#utility.yul\":5435:5440   */\n      dup4\n        /* \"#utility.yul\":5431:5447   */\n      add\n        /* \"#utility.yul\":5425:5448   */\n      mload\n        /* \"#utility.yul\":5495:5498   */\n      dup5\n        /* \"#utility.yul\":5489:5493   */\n      dup3\n        /* \"#utility.yul\":5485:5499   */\n      sub\n        /* \"#utility.yul\":5478:5482   */\n      0x20\n        /* \"#utility.yul\":5473:5476   */\n      dup7\n        /* \"#utility.yul\":5469:5483   */\n      add\n        /* \"#utility.yul\":5462:5500   */\n      mstore\n        /* \"#utility.yul\":5521:5594   */\n      tag_162\n        /* \"#utility.yul\":5589:5593   */\n      dup3\n        /* \"#utility.yul\":5575:5587   */\n      dup3\n        /* \"#utility.yul\":5521:5594   */\n      tag_70\n      jump\t// in\n    tag_162:\n        /* \"#utility.yul\":5513:5594   */\n      swap2\n      pop\n        /* \"#utility.yul\":5367:5605   */\n      pop\n        /* \"#utility.yul\":5692:5696   */\n      0x40\n        /* \"#utility.yul\":5685:5690   */\n      dup4\n        /* \"#utility.yul\":5681:5697   */\n      add\n        /* \"#utility.yul\":5675:5698   */\n      mload\n        /* \"#utility.yul\":5711:5774   */\n      tag_163\n        /* \"#utility.yul\":5768:5772   */\n      0x40\n        /* \"#utility.yul\":5763:5766   */\n      dup7\n        /* \"#utility.yul\":5759:5773   */\n      add\n        /* \"#utility.yul\":5745:5757   */\n      dup3\n        /* \"#utility.yul\":5711:5774   */\n      tag_71\n      jump\t// in\n    tag_163:\n        /* \"#utility.yul\":5615:5784   */\n      pop\n        /* \"#utility.yul\":5801:5805   */\n      dup1\n        /* \"#utility.yul\":5794:5805   */\n      swap2\n      pop\n        /* \"#utility.yul\":5145:5811   */\n      pop\n        /* \"#utility.yul\":5041:5811   */\n      swap3\n      swap2\n      pop\n      pop\n      jump\t// out\n        /* \"#utility.yul\":5817:6053   */\n    tag_73:\n        /* \"#utility.yul\":5926:5936   */\n      0x00\n        /* \"#utility.yul\":5961:6047   */\n      tag_165\n        /* \"#utility.yul\":6043:6046   */\n      dup4\n        /* \"#utility.yul\":6035:6041   */\n      dup4\n        /* \"#utility.yul\":5961:6047   */\n      tag_72\n      jump\t// in\n    tag_165:\n        /* \"#utility.yul\":5947:6047   */\n      swap1\n      pop\n        /* \"#utility.yul\":5817:6053   */\n      swap3\n      swap2\n      pop\n      pop\n      jump\t// out\n        /* \"#utility.yul\":6059:6192   */\n    tag_74:\n        /* \"#utility.yul\":6149:6153   */\n      0x00\n        /* \"#utility.yul\":6181:6185   */\n      0x20\n        /* \"#utility.yul\":6176:6179   */\n      dup3\n        /* \"#utility.yul\":6172:6186   */\n      add\n        /* \"#utility.yul\":6164:6186   */\n      swap1\n      pop\n        /* \"#utility.yul\":6059:6192   */\n      swap2\n      swap1\n      pop\n      jump\t// out\n        /* \"#utility.yul\":6264:7335   */\n    tag_75:\n        /* \"#utility.yul\":6423:6426   */\n      0x00\n        /* \"#utility.yul\":6452:6526   */\n      tag_168\n        /* \"#utility.yul\":6520:6525   */\n      dup3\n        /* \"#utility.yul\":6452:6526   */\n      tag_65\n      jump\t// in\n    tag_168:\n        /* \"#utility.yul\":6542:6648   */\n      tag_169\n        /* \"#utility.yul\":6641:6647   */\n      dup2\n        /* \"#utility.yul\":6636:6639   */\n      dup6\n        /* \"#utility.yul\":6542:6648   */\n      tag_66\n      jump\t// in\n    tag_169:\n        /* \"#utility.yul\":6535:6648   */\n      swap4\n      pop\n        /* \"#utility.yul\":6674:6677   */\n      dup4\n        /* \"#utility.yul\":6719:6723   */\n      0x20\n        /* \"#utility.yul\":6711:6717   */\n      dup3\n        /* \"#utility.yul\":6707:6724   */\n      mul\n        /* \"#utility.yul\":6702:6705   */\n      dup6\n        /* \"#utility.yul\":6698:6725   */\n      add\n        /* \"#utility.yul\":6749:6825   */\n      tag_170\n        /* \"#utility.yul\":6819:6824   */\n      dup6\n        /* \"#utility.yul\":6749:6825   */\n      tag_67\n      jump\t// in\n    tag_170:\n        /* \"#utility.yul\":6848:6855   */\n      dup1\n        /* \"#utility.yul\":6879:6880   */\n      0x00\n        /* \"#utility.yul\":6864:7290   */\n    tag_171:\n        /* \"#utility.yul\":6889:6895   */\n      dup6\n        /* \"#utility.yul\":6886:6887   */\n      dup2\n        /* \"#utility.yul\":6883:6896   */\n      lt\n        /* \"#utility.yul\":6864:7290   */\n      iszero\n      tag_173\n      jumpi\n        /* \"#utility.yul\":6960:6969   */\n      dup5\n        /* \"#utility.yul\":6954:6958   */\n      dup5\n        /* \"#utility.yul\":6950:6970   */\n      sub\n        /* \"#utility.yul\":6945:6948   */\n      dup10\n        /* \"#utility.yul\":6938:6971   */\n      mstore\n        /* \"#utility.yul\":7011:7017   */\n      dup2\n        /* \"#utility.yul\":7005:7018   */\n      mload\n        /* \"#utility.yul\":7039:7143   */\n      tag_174\n        /* \"#utility.yul\":7138:7142   */\n      dup6\n        /* \"#utility.yul\":7123:7136   */\n      dup3\n        /* \"#utility.yul\":7039:7143   */\n      tag_73\n      jump\t// in\n    tag_174:\n        /* \"#utility.yul\":7031:7143   */\n      swap5\n      pop\n        /* \"#utility.yul\":7166:7246   */\n      tag_175\n        /* \"#utility.yul\":7239:7245   */\n      dup4\n        /* \"#utility.yul\":7166:7246   */\n      tag_74\n      jump\t// in\n    tag_175:\n        /* \"#utility.yul\":7156:7246   */\n      swap3\n      pop\n        /* \"#utility.yul\":7275:7279   */\n      0x20\n        /* \"#utility.yul\":7270:7273   */\n      dup11\n        /* \"#utility.yul\":7266:7280   */\n      add\n        /* \"#utility.yul\":7259:7280   */\n      swap10\n      pop\n        /* \"#utility.yul\":6924:7290   */\n      pop\n        /* \"#utility.yul\":6911:6912   */\n      0x01\n        /* \"#utility.yul\":6908:6909   */\n      dup2\n        /* \"#utility.yul\":6904:6913   */\n      add\n        /* \"#utility.yul\":6899:6913   */\n      swap1\n      pop\n        /* \"#utility.yul\":6864:7290   */\n      jump(tag_171)\n    tag_173:\n        /* \"#utility.yul\":6868:6882   */\n      pop\n        /* \"#utility.yul\":7306:7310   */\n      dup3\n        /* \"#utility.yul\":7299:7310   */\n      swap8\n      pop\n        /* \"#utility.yul\":7326:7329   */\n      dup8\n        /* \"#utility.yul\":7319:7329   */\n      swap6\n      pop\n        /* \"#utility.yul\":6428:7335   */\n      pop\n      pop\n      pop\n      pop\n      pop\n        /* \"#utility.yul\":6264:7335   */\n      swap3\n      swap2\n      pop\n      pop\n      jump\t// out\n        /* \"#utility.yul\":7341:7794   */\n    tag_17:\n        /* \"#utility.yul\":7524:7528   */\n      0x00\n        /* \"#utility.yul\":7562:7564   */\n      0x20\n        /* \"#utility.yul\":7551:7560   */\n      dup3\n        /* \"#utility.yul\":7547:7565   */\n      add\n        /* \"#utility.yul\":7539:7565   */\n      swap1\n      pop\n        /* \"#utility.yul\":7611:7620   */\n      dup2\n        /* \"#utility.yul\":7605:7609   */\n      dup2\n        /* \"#utility.yul\":7601:7621   */\n      sub\n        /* \"#utility.yul\":7597:7598   */\n      0x00\n        /* \"#utility.yul\":7586:7595   */\n      dup4\n        /* \"#utility.yul\":7582:7599   */\n      add\n        /* \"#utility.yul\":7575:7622   */\n      mstore\n        /* \"#utility.yul\":7639:7787   */\n      tag_177\n        /* \"#utility.yul\":7782:7786   */\n      dup2\n        /* \"#utility.yul\":7773:7779   */\n      dup5\n        /* \"#utility.yul\":7639:7787   */\n      tag_75\n      jump\t// in\n    tag_177:\n        /* \"#utility.yul\":7631:7787   */\n      swap1\n      pop\n        /* \"#utility.yul\":7341:7794   */\n      swap3\n      swap2\n      pop\n      pop\n      jump\t// out\n        /* \"#utility.yul\":7800:7917   */\n    tag_76:\n        /* \"#utility.yul\":7909:7910   */\n      0x00\n        /* \"#utility.yul\":7906:7907   */\n      0x00\n        /* \"#utility.yul\":7899:7911   */\n      revert\n        /* \"#utility.yul\":7923:8040   */\n    tag_77:\n        /* \"#utility.yul\":8032:8033   */\n      0x00\n        /* \"#utility.yul\":8029:8030   */\n      0x00\n        /* \"#utility.yul\":8022:8034   */\n      revert\n        /* \"#utility.yul\":8046:8226   */\n    tag_78:\n        /* \"#utility.yul\":8094:8171   */\n      0x4e487b7100000000000000000000000000000000000000000000000000000000\n        /* \"#utility.yul\":8091:8092   */\n      0x00\n        /* \"#utility.yul\":8084:8172   */\n      mstore\n        /* \"#utility.yul\":8191:8195   */\n      0x41\n        /* \"#utility.yul\":8188:8189   */\n      0x04\n        /* \"#utility.yul\":8181:8196   */\n      mstore\n        /* \"#utility.yul\":8215:8219   */\n      0x24\n        /* \"#utility.yul\":8212:8213   */\n      0x00\n        /* \"#utility.yul\":8205:8220   */\n      revert\n        /* \"#utility.yul\":8232:8513   */\n    tag_79:\n        /* \"#utility.yul\":8315:8342   */\n      tag_182\n        /* \"#utility.yul\":8337:8341   */\n      dup3\n        /* \"#utility.yul\":8315:8342   */\n      tag_62\n      jump\t// in\n    tag_182:\n        /* \"#utility.yul\":8307:8313   */\n      dup2\n        /* \"#utility.yul\":8303:8343   */\n      add\n        /* \"#utility.yul\":8445:8451   */\n      dup2\n        /* \"#utility.yul\":8433:8443   */\n      dup2\n        /* \"#utility.yul\":8430:8452   */\n      lt\n        /* \"#utility.yul\":8409:8427   */\n      0xffffffffffffffff\n        /* \"#utility.yul\":8397:8407   */\n      dup3\n        /* \"#utility.yul\":8394:8428   */\n      gt\n        /* \"#utility.yul\":8391:8453   */\n      or\n        /* \"#utility.yul\":8388:8476   */\n      iszero\n      tag_183\n      jumpi\n        /* \"#utility.yul\":8456:8474   */\n      tag_184\n      tag_78\n      jump\t// in\n    tag_184:\n        /* \"#utility.yul\":8388:8476   */\n    tag_183:\n        /* \"#utility.yul\":8496:8506   */\n      dup1\n        /* \"#utility.yul\":8492:8494   */\n      0x40\n        /* \"#utility.yul\":8485:8507   */\n      mstore\n        /* \"#utility.yul\":8275:8513   */\n      pop\n        /* \"#utility.yul\":8232:8513   */\n      pop\n      pop\n      jump\t// out\n        /* \"#utility.yul\":8519:8648   */\n    tag_80:\n        /* \"#utility.yul\":8553:8559   */\n      0x00\n        /* \"#utility.yul\":8580:8600   */\n      tag_186\n      tag_48\n      jump\t// in\n    tag_186:\n        /* \"#utility.yul\":8570:8600   */\n      swap1\n      pop\n        /* \"#utility.yul\":8609:8642   */\n      tag_187\n        /* \"#utility.yul\":8637:8641   */\n      dup3\n        /* \"#utility.yul\":8629:8635   */\n      dup3\n        /* \"#utility.yul\":8609:8642   */\n      tag_79\n      jump\t// in\n    tag_187:\n        /* \"#utility.yul\":8519:8648   */\n      swap2\n      swap1\n      pop\n      jump\t// out\n        /* \"#utility.yul\":8654:8962   */\n    tag_81:\n        /* \"#utility.yul\":8716:8720   */\n      0x00\n        /* \"#utility.yul\":8806:8824   */\n      0xffffffffffffffff\n        /* \"#utility.yul\":8798:8804   */\n      dup3\n        /* \"#utility.yul\":8795:8825   */\n      gt\n        /* \"#utility.yul\":8792:8848   */\n      iszero\n      tag_189\n      jumpi\n        /* \"#utility.yul\":8828:8846   */\n      tag_190\n      tag_78\n      jump\t// in\n    tag_190:\n        /* \"#utility.yul\":8792:8848   */\n    tag_189:\n        /* \"#utility.yul\":8866:8895   */\n      tag_191\n        /* \"#utility.yul\":8888:8894   */\n      dup3\n        /* \"#utility.yul\":8866:8895   */\n      tag_62\n      jump\t// in\n    tag_191:\n        /* \"#utility.yul\":8858:8895   */\n      swap1\n      pop\n        /* \"#utility.yul\":8950:8954   */\n      0x20\n        /* \"#utility.yul\":8944:8948   */\n      dup2\n        /* \"#utility.yul\":8940:8955   */\n      add\n        /* \"#utility.yul\":8932:8955   */\n      swap1\n      pop\n        /* \"#utility.yul\":8654:8962   */\n      swap2\n      swap1\n      pop\n      jump\t// out\n        /* \"#utility.yul\":8968:9116   */\n    tag_82:\n        /* \"#utility.yul\":9066:9072   */\n      dup3\n        /* \"#utility.yul\":9061:9064   */\n      dup2\n        /* \"#utility.yul\":9056:9059   */\n      dup4\n        /* \"#utility.yul\":9043:9073   */\n      calldatacopy\n        /* \"#utility.yul\":9107:9108   */\n      0x00\n        /* \"#utility.yul\":9098:9104   */\n      dup4\n        /* \"#utility.yul\":9093:9096   */\n      dup4\n        /* \"#utility.yul\":9089:9105   */\n      add\n        /* \"#utility.yul\":9082:9109   */\n      mstore\n        /* \"#utility.yul\":8968:9116   */\n      pop\n      pop\n      pop\n      jump\t// out\n        /* \"#utility.yul\":9122:9547   */\n    tag_83:\n        /* \"#utility.yul\":9200:9205   */\n      0x00\n        /* \"#utility.yul\":9225:9291   */\n      tag_194\n        /* \"#utility.yul\":9241:9290   */\n      tag_195\n        /* \"#utility.yul\":9283:9289   */\n      dup5\n        /* \"#utility.yul\":9241:9290   */\n      tag_81\n      jump\t// in\n    tag_195:\n        /* \"#utility.yul\":9225:9291   */\n      tag_80\n      jump\t// in\n    tag_194:\n        /* \"#utility.yul\":9216:9291   */\n      swap1\n      pop\n        /* \"#utility.yul\":9314:9320   */\n      dup3\n        /* \"#utility.yul\":9307:9312   */\n      dup2\n        /* \"#utility.yul\":9300:9321   */\n      mstore\n        /* \"#utility.yul\":9352:9356   */\n      0x20\n        /* \"#utility.yul\":9345:9350   */\n      dup2\n        /* \"#utility.yul\":9341:9357   */\n      add\n        /* \"#utility.yul\":9390:9393   */\n      dup5\n        /* \"#utility.yul\":9381:9387   */\n      dup5\n        /* \"#utility.yul\":9376:9379   */\n      dup5\n        /* \"#utility.yul\":9372:9388   */\n      add\n        /* \"#utility.yul\":9369:9394   */\n      gt\n        /* \"#utility.yul\":9366:9478   */\n      iszero\n      tag_196\n      jumpi\n        /* \"#utility.yul\":9397:9476   */\n      tag_197\n      tag_77\n      jump\t// in\n    tag_197:\n        /* \"#utility.yul\":9366:9478   */\n    tag_196:\n        /* \"#utility.yul\":9487:9541   */\n      tag_198\n        /* \"#utility.yul\":9534:9540   */\n      dup5\n        /* \"#utility.yul\":9529:9532   */\n      dup3\n        /* \"#utility.yul\":9524:9527   */\n      dup6\n        /* \"#utility.yul\":9487:9541   */\n      tag_82\n      jump\t// in\n    tag_198:\n        /* \"#utility.yul\":9206:9547   */\n      pop\n        /* \"#utility.yul\":9122:9547   */\n      swap4\n      swap3\n      pop\n      pop\n      pop\n      jump\t// out\n        /* \"#utility.yul\":9567:9907   */\n    tag_84:\n        /* \"#utility.yul\":9623:9628   */\n      0x00\n        /* \"#utility.yul\":9672:9675   */\n      dup3\n        /* \"#utility.yul\":9665:9669   */\n      0x1f\n        /* \"#utility.yul\":9657:9663   */\n      dup4\n        /* \"#utility.yul\":9653:9670   */\n      add\n        /* \"#utility.yul\":9649:9676   */\n      slt\n        /* \"#utility.yul\":9639:9761   */\n      tag_200\n      jumpi\n        /* \"#utility.yul\":9680:9759   */\n      tag_201\n      tag_76\n      jump\t// in\n    tag_201:\n        /* \"#utility.yul\":9639:9761   */\n    tag_200:\n        /* \"#utility.yul\":9797:9803   */\n      dup2\n        /* \"#utility.yul\":9784:9804   */\n      calldataload\n        /* \"#utility.yul\":9822:9901   */\n      tag_202\n        /* \"#utility.yul\":9897:9900   */\n      dup5\n        /* \"#utility.yul\":9889:9895   */\n      dup3\n        /* \"#utility.yul\":9882:9886   */\n      0x20\n        /* \"#utility.yul\":9874:9880   */\n      dup7\n        /* \"#utility.yul\":9870:9887   */\n      add\n        /* \"#utility.yul\":9822:9901   */\n      tag_83\n      jump\t// in\n    tag_202:\n        /* \"#utility.yul\":9813:9901   */\n      swap2\n      pop\n        /* \"#utility.yul\":9629:9907   */\n      pop\n        /* \"#utility.yul\":9567:9907   */\n      swap3\n      swap2\n      pop\n      pop\n      jump\t// out\n        /* \"#utility.yul\":9913:10422   */\n    tag_20:\n        /* \"#utility.yul\":9982:9988   */\n      0x00\n        /* \"#utility.yul\":10031:10033   */\n      0x20\n        /* \"#utility.yul\":10019:10028   */\n      dup3\n        /* \"#utility.yul\":10010:10017   */\n      dup5\n        /* \"#utility.yul\":10006:10029   */\n      sub\n        /* \"#utility.yul\":10002:10034   */\n      slt\n        /* \"#utility.yul\":9999:10118   */\n      iszero\n      tag_204\n      jumpi\n        /* \"#utility.yul\":10037:10116   */\n      tag_205\n      tag_49\n      jump\t// in\n    tag_205:\n        /* \"#utility.yul\":9999:10118   */\n    tag_204:\n        /* \"#utility.yul\":10185:10186   */\n      0x00\n        /* \"#utility.yul\":10174:10183   */\n      dup3\n        /* \"#utility.yul\":10170:10187   */\n      add\n        /* \"#utility.yul\":10157:10188   */\n      calldataload\n        /* \"#utility.yul\":10215:10233   */\n      0xffffffffffffffff\n        /* \"#utility.yul\":10207:10213   */\n      dup2\n        /* \"#utility.yul\":10204:10234   */\n      gt\n        /* \"#utility.yul\":10201:10318   */\n      iszero\n      tag_206\n      jumpi\n        /* \"#utility.yul\":10237:10316   */\n      tag_207\n      tag_50\n      jump\t// in\n    tag_207:\n        /* \"#utility.yul\":10201:10318   */\n    tag_206:\n        /* \"#utility.yul\":10342:10405   */\n      tag_208\n        /* \"#utility.yul\":10397:10404   */\n      dup5\n        /* \"#utility.yul\":10388:10394   */\n      dup3\n        /* \"#utility.yul\":10377:10386   */\n      dup6\n        /* \"#utility.yul\":10373:10395   */\n      add\n        /* \"#utility.yul\":10342:10405   */\n      tag_84\n      jump\t// in\n    tag_208:\n        /* \"#utility.yul\":10332:10405   */\n      swap2\n      pop\n        /* \"#utility.yul\":10128:10415   */\n      pop\n        /* \"#utility.yul\":9913:10422   */\n      swap3\n      swap2\n      pop\n      pop\n      jump\t// out\n        /* \"#utility.yul\":10428:10608   */\n    tag_85:\n        /* \"#utility.yul\":10476:10553   */\n      0x4e487b7100000000000000000000000000000000000000000000000000000000\n        /* \"#utility.yul\":10473:10474   */\n      0x00\n        /* \"#utility.yul\":10466:10554   */\n      mstore\n        /* \"#utility.yul\":10573:10577   */\n      0x22\n        /* \"#utility.yul\":10570:10571   */\n      0x04\n        /* \"#utility.yul\":10563:10578   */\n      mstore\n        /* \"#utility.yul\":10597:10601   */\n      0x24\n        /* \"#utility.yul\":10594:10595   */\n      0x00\n        /* \"#utility.yul\":10587:10602   */\n      revert\n        /* \"#utility.yul\":10614:10934   */\n    tag_25:\n        /* \"#utility.yul\":10658:10664   */\n      0x00\n        /* \"#utility.yul\":10695:10696   */\n      0x02\n        /* \"#utility.yul\":10689:10693   */\n      dup3\n        /* \"#utility.yul\":10685:10697   */\n      div\n        /* \"#utility.yul\":10675:10697   */\n      swap1\n      pop\n        /* \"#utility.yul\":10742:10743   */\n      0x01\n        /* \"#utility.yul\":10736:10740   */\n      dup3\n        /* \"#utility.yul\":10732:10744   */\n      and\n        /* \"#utility.yul\":10763:10781   */\n      dup1\n        /* \"#utility.yul\":10753:10834   */\n      tag_211\n      jumpi\n        /* \"#utility.yul\":10819:10823   */\n      0x7f\n        /* \"#utility.yul\":10811:10817   */\n      dup3\n        /* \"#utility.yul\":10807:10824   */\n      and\n        /* \"#utility.yul\":10797:10824   */\n      swap2\n      pop\n        /* \"#utility.yul\":10753:10834   */\n    tag_211:\n        /* \"#utility.yul\":10881:10883   */\n      0x20\n        /* \"#utility.yul\":10873:10879   */\n      dup3\n        /* \"#utility.yul\":10870:10884   */\n      lt\n        /* \"#utility.yul\":10850:10868   */\n      dup2\n        /* \"#utility.yul\":10847:10885   */\n      sub\n        /* \"#utility.yul\":10844:10928   */\n      tag_212\n      jumpi\n        /* \"#utility.yul\":10900:10918   */\n      tag_213\n      tag_85\n      jump\t// in\n    tag_213:\n        /* \"#utility.yul\":10844:10928   */\n    tag_212:\n        /* \"#utility.yul\":10665:10934   */\n      pop\n        /* \"#utility.yul\":10614:10934   */\n      swap2\n      swap1\n      pop\n      jump\t// out\n        /* \"#utility.yul\":10940:11119   */\n    tag_86:\n        /* \"#utility.yul\":11080:11111   */\n      0x547765657420636f6e74656e742063616e6e6f7420626520656d707479000000\n        /* \"#utility.yul\":11076:11077   */\n      0x00\n        /* \"#utility.yul\":11068:11074   */\n      dup3\n        /* \"#utility.yul\":11064:11078   */\n      add\n        /* \"#utility.yul\":11057:11112   */\n      mstore\n        /* \"#utility.yul\":10940:11119   */\n      pop\n      jump\t// out\n        /* \"#utility.yul\":11125:11491   */\n    tag_87:\n        /* \"#utility.yul\":11267:11270   */\n      0x00\n        /* \"#utility.yul\":11288:11355   */\n      tag_216\n        /* \"#utility.yul\":11352:11354   */\n      0x1d\n        /* \"#utility.yul\":11347:11350   */\n      dup4\n        /* \"#utility.yul\":11288:11355   */\n      tag_60\n      jump\t// in\n    tag_216:\n        /* \"#utility.yul\":11281:11355   */\n      swap2\n      pop\n        /* \"#utility.yul\":11364:11457   */\n      tag_217\n        /* \"#utility.yul\":11453:11456   */\n      dup3\n        /* \"#utility.yul\":11364:11457   */\n      tag_86\n      jump\t// in\n    tag_217:\n        /* \"#utility.yul\":11482:11484   */\n      0x20\n        /* \"#utility.yul\":11477:11480   */\n      dup3\n        /* \"#utility.yul\":11473:11485   */\n      add\n        /* \"#utility.yul\":11466:11485   */\n      swap1\n      pop\n        /* \"#utility.yul\":11125:11491   */\n      swap2\n      swap1\n      pop\n      jump\t// out\n        /* \"#utility.yul\":11497:11916   */\n    tag_42:\n        /* \"#utility.yul\":11663:11667   */\n      0x00\n        /* \"#utility.yul\":11701:11703   */\n      0x20\n        /* \"#utility.yul\":11690:11699   */\n      dup3\n        /* \"#utility.yul\":11686:11704   */\n      add\n        /* \"#utility.yul\":11678:11704   */\n      swap1\n      pop\n        /* \"#utility.yul\":11750:11759   */\n      dup2\n        /* \"#utility.yul\":11744:11748   */\n      dup2\n        /* \"#utility.yul\":11740:11760   */\n      sub\n        /* \"#utility.yul\":11736:11737   */\n      0x00\n        /* \"#utility.yul\":11725:11734   */\n      dup4\n        /* \"#utility.yul\":11721:11738   */\n      add\n        /* \"#utility.yul\":11714:11761   */\n      mstore\n        /* \"#utility.yul\":11778:11909   */\n      tag_219\n        /* \"#utility.yul\":11904:11908   */\n      dup2\n        /* \"#utility.yul\":11778:11909   */\n      tag_87\n      jump\t// in\n    tag_219:\n        /* \"#utility.yul\":11770:11909   */\n      swap1\n      pop\n        /* \"#utility.yul\":11497:11916   */\n      swap2\n      swap1\n      pop\n      jump\t// out\n        /* \"#utility.yul\":11922:12063   */\n    tag_88:\n        /* \"#utility.yul\":11971:11975   */\n      0x00\n        /* \"#utility.yul\":11994:11997   */\n      dup2\n        /* \"#utility.yul\":11986:11997   */\n      swap1\n      pop\n        /* \"#utility.yul\":12017:12020   */\n      dup2\n        /* \"#utility.yul\":12014:12015   */\n      0x00\n        /* \"#utility.yul\":12007:12021   */\n      mstore\n        /* \"#utility.yul\":12051:12055   */\n      0x20\n        /* \"#utility.yul\":12048:12049   */\n      0x00\n        /* \"#utility.yul\":12038:12056   */\n      keccak256\n        /* \"#utility.yul\":12030:12056   */\n      swap1\n      pop\n        /* \"#utility.yul\":11922:12063   */\n      swap2\n      swap1\n      pop\n      jump\t// out\n        /* \"#utility.yul\":12069:12162   */\n    tag_89:\n        /* \"#utility.yul\":12106:12112   */\n      0x00\n        /* \"#utility.yul\":12153:12155   */\n      0x20\n        /* \"#utility.yul\":12148:12150   */\n      0x1f\n        /* \"#utility.yul\":12141:12146   */\n      dup4\n        /* \"#utility.yul\":12137:12151   */\n      add\n        /* \"#utility.yul\":12133:12156   */\n      div\n        /* \"#utility.yul\":12123:12156   */\n      swap1\n      pop\n        /* \"#utility.yul\":12069:12162   */\n      swap2\n      swap1\n      pop\n      jump\t// out\n        /* \"#utility.yul\":12168:12275   */\n    tag_90:\n        /* \"#utility.yul\":12212:12220   */\n      0x00\n        /* \"#utility.yul\":12262:12267   */\n      dup3\n        /* \"#utility.yul\":12256:12260   */\n      dup3\n        /* \"#utility.yul\":12252:12268   */\n      shl\n        /* \"#utility.yul\":12231:12268   */\n      swap1\n      pop\n        /* \"#utility.yul\":12168:12275   */\n      swap3\n      swap2\n      pop\n      pop\n      jump\t// out\n        /* \"#utility.yul\":12281:12674   */\n    tag_91:\n        /* \"#utility.yul\":12350:12356   */\n      0x00\n        /* \"#utility.yul\":12400:12401   */\n      0x08\n        /* \"#utility.yul\":12388:12398   */\n      dup4\n        /* \"#utility.yul\":12384:12402   */\n      mul\n        /* \"#utility.yul\":12423:12520   */\n      tag_224\n        /* \"#utility.yul\":12453:12519   */\n      0xffffffffffffffffffffffffffffffffffffffffffffffffffffffffffffffff\n        /* \"#utility.yul\":12442:12451   */\n      dup3\n        /* \"#utility.yul\":12423:12520   */\n      tag_90\n      jump\t// in\n    tag_224:\n        /* \"#utility.yul\":12541:12580   */\n      tag_225\n        /* \"#utility.yul\":12571:12579   */\n      dup7\n        /* \"#utility.yul\":12560:12569   */\n      dup4\n        /* \"#utility.yul\":12541:12580   */\n      tag_90\n      jump\t// in\n    tag_225:\n        /* \"#utility.yul\":12529:12580   */\n      swap6\n      pop\n        /* \"#utility.yul\":12613:12617   */\n      dup1\n        /* \"#utility.yul\":12609:12618   */\n      not\n        /* \"#utility.yul\":12602:12607   */\n      dup5\n        /* \"#utility.yul\":12598:12619   */\n      and\n        /* \"#utility.yul\":12589:12619   */\n      swap4\n      pop\n        /* \"#utility.yul\":12662:12666   */\n      dup1\n        /* \"#utility.yul\":12652:12660   */\n      dup7\n        /* \"#utility.yul\":12648:12667   */\n      and\n        /* \"#utility.yul\":12641:12646   */\n      dup5\n        /* \"#utility.yul\":12638:12668   */\n      or\n        /* \"#utility.yul\":12628:12668   */\n      swap3\n      pop\n        /* \"#utility.yul\":12357:12674   */\n      pop\n      pop\n        /* \"#utility.yul\":12281:12674   */\n      swap4\n      swap3\n      pop\n      pop\n      pop\n      jump\t// out\n        /* \"#utility.yul\":12680:12740   */\n    tag_92:\n        /* \"#utility.yul\":12708:12711   */\n      0x00\n        /* \"#utility.yul\":12729:12734   */\n      dup2\n        /* \"#utility.yul\":12722:12734   */\n      swap1\n      pop\n        /* \"#utility.yul\":12680:12740   */\n      swap2\n      swap1\n      pop\n      jump\t// out\n        /* \"#utility.yul\":12746:12888   */\n    tag_93:\n        /* \"#utility.yul\":12796:12805   */\n      0x00\n        /* \"#utility.yul\":12829:12882   */\n      tag_228\n        /* \"#utility.yul\":12847:12881   */\n      tag_229\n        /* \"#utility.yul\":12856:12880   */\n      tag_230\n        /* \"#utility.yul\":12874:12879   */\n      dup5\n        /* \"#utility.yul\":12856:12880   */\n      tag_55\n      jump\t// in\n    tag_230:\n        /* \"#utility.yul\":12847:12881   */\n      tag_92\n      jump\t// in\n    tag_229:\n        /* \"#utility.yul\":12829:12882   */\n      tag_55\n      jump\t// in\n    tag_228:\n        /* \"#utility.yul\":12816:12882   */\n      swap1\n      pop\n        /* \"#utility.yul\":12746:12888   */\n      swap2\n      swap1\n      pop\n      jump\t// out\n        /* \"#utility.yul\":12894:12969   */\n    tag_94:\n        /* \"#utility.yul\":12937:12940   */\n      0x00\n        /* \"#utility.yul\":12958:12963   */\n      dup2\n        /* \"#utility.yul\":12951:12963   */\n      swap1\n      pop\n        /* \"#utility.yul\":12894:12969   */\n      swap2\n      swap1\n      pop\n      jump\t// out\n        /* \"#utility.yul\":12975:13244   */\n    tag_95:\n        /* \"#utility.yul\":13085:13124   */\n      tag_233\n        /* \"#utility.yul\":13116:13123   */\n      dup4\n        /* \"#utility.yul\":13085:13124   */\n      tag_93\n      jump\t// in\n    tag_233:\n        /* \"#utility.yul\":13146:13237   */\n      tag_234\n        /* \"#utility.yul\":13195:13236   */\n      tag_235\n        /* \"#utility.yul\":13219:13235   */\n      dup3\n        /* \"#utility.yul\":13195:13236   */\n      tag_94\n      jump\t// in\n    tag_235:\n        /* \"#utility.yul\":13187:13193   */\n      dup5\n        /* \"#utility.yul\":13180:13184   */\n      dup5\n        /* \"#utility.yul\":13174:13185   */\n      sload\n        /* \"#utility.yul\":13146:13237   */\n      tag_91\n      jump\t// in\n    tag_234:\n        /* \"#utility.yul\":13140:13144   */\n      dup3\n        /* \"#utility.yul\":13133:13238   */\n      sstore\n        /* \"#utility.yul\":13051:13244   */\n      pop\n        /* \"#utility.yul\":12975:13244   */\n      pop\n      pop\n      pop\n      jump\t// out\n        /* \"#utility.yul\":13250:13323   */\n    tag_96:\n        /* \"#utility.yul\":13295:13298   */\n      0x00\n        /* \"#utility.yul\":13316:13317   */\n      0x00\n        /* \"#utility.yul\":13309:13317   */\n      swap1\n      pop\n        /* \"#utility.yul\":13250:13323   */\n      swap1\n      jump\t// out\n        /* \"#utility.yul\":13329:13518   */\n    tag_97:\n        /* \"#utility.yul\":13406:13438   */\n      tag_238\n      tag_96\n      jump\t// in\n    tag_238:\n        /* \"#utility.yul\":13447:13512   */\n      tag_239\n        /* \"#utility.yul\":13505:13511   */\n      dup2\n        /* \"#utility.yul\":13497:13503   */\n      dup5\n        /* \"#utility.yul\":13491:13495   */\n      dup5\n        /* \"#utility.yul\":13447:13512   */\n      tag_95\n      jump\t// in\n    tag_239:\n        /* \"#utility.yul\":13382:13518   */\n      pop\n        /* \"#utility.yul\":13329:13518   */\n      pop\n      pop\n      jump\t// out\n        /* \"#utility.yul\":13524:13710   */\n    tag_98:\n        /* \"#utility.yul\":13584:13704   */\n    tag_241:\n        /* \"#utility.yul\":13601:13604   */\n      dup2\n        /* \"#utility.yul\":13594:13599   */\n      dup2\n        /* \"#utility.yul\":13591:13605   */\n      lt\n        /* \"#utility.yul\":13584:13704   */\n      iszero\n      tag_243\n      jumpi\n        /* \"#utility.yul\":13655:13694   */\n      tag_244\n        /* \"#utility.yul\":13692:13693   */\n      0x00\n        /* \"#utility.yul\":13685:13690   */\n      dup3\n        /* \"#utility.yul\":13655:13694   */\n      tag_97\n      jump\t// in\n    tag_244:\n        /* \"#utility.yul\":13628:13629   */\n      0x01\n        /* \"#utility.yul\":13621:13626   */\n      dup2\n        /* \"#utility.yul\":13617:13630   */\n      add\n        /* \"#utility.yul\":13608:13630   */\n      swap1\n      pop\n        /* \"#utility.yul\":13584:13704   */\n      jump(tag_241)\n    tag_243:\n        /* \"#utility.yul\":13524:13710   */\n      pop\n      pop\n      jump\t// out\n        /* \"#utility.yul\":13716:14259   */\n    tag_99:\n        /* \"#utility.yul\":13817:13819   */\n      0x1f\n        /* \"#utility.yul\":13812:13815   */\n      dup3\n        /* \"#utility.yul\":13809:13820   */\n      gt\n        /* \"#utility.yul\":13806:14252   */\n      iszero\n      tag_246\n      jumpi\n        /* \"#utility.yul\":13851:13889   */\n      tag_247\n        /* \"#utility.yul\":13883:13888   */\n      dup2\n        /* \"#utility.yul\":13851:13889   */\n      tag_88\n      jump\t// in\n    tag_247:\n        /* \"#utility.yul\":13935:13964   */\n      tag_248\n        /* \"#utility.yul\":13953:13963   */\n      dup5\n        /* \"#utility.yul\":13935:13964   */\n      tag_89\n      jump\t// in\n    tag_248:\n        /* \"#utility.yul\":13925:13933   */\n      dup2\n        /* \"#utility.yul\":13921:13965   */\n      add\n        /* \"#utility.yul\":14118:14120   */\n      0x20\n        /* \"#utility.yul\":14106:14116   */\n      dup6\n        /* \"#utility.yul\":14103:14121   */\n      lt\n        /* \"#utility.yul\":14100:14149   */\n      iszero\n      tag_249\n      jumpi\n        /* \"#utility.yul\":14139:14147   */\n      dup2\n        /* \"#utility.yul\":14124:14147   */\n      swap1\n      pop\n        /* \"#utility.yul\":14100:14149   */\n    tag_249:\n        /* \"#utility.yul\":14162:14242   */\n      tag_250\n        /* \"#utility.yul\":14218:14240   */\n      tag_251\n        /* \"#utility.yul\":14236:14239   */\n      dup6\n        /* \"#utility.yul\":14218:14240   */\n      tag_89\n      jump\t// in\n    tag_251:\n        /* \"#utility.yul\":14208:14216   */\n      dup4\n        /* \"#utility.yul\":14204:14241   */\n      add\n        /* \"#utility.yul\":14191:14202   */\n      dup3\n        /* \"#utility.yul\":14162:14242   */\n      tag_98\n      jump\t// in\n    tag_250:\n        /* \"#utility.yul\":13821:14252   */\n      pop\n      pop\n        /* \"#utility.yul\":13806:14252   */\n    tag_246:\n        /* \"#utility.yul\":13716:14259   */\n      pop\n      pop\n      pop\n      jump\t// out\n        /* \"#utility.yul\":14265:14382   */\n    tag_100:\n        /* \"#utility.yul\":14319:14327   */\n      0x00\n        /* \"#utility.yul\":14369:14374   */\n      dup3\n        /* \"#utility.yul\":14363:14367   */\n      dup3\n        /* \"#utility.yul\":14359:14375   */\n      shr\n        /* \"#utility.yul\":14338:14375   */\n      swap1\n      pop\n        /* \"#utility.yul\":14265:14382   */\n      swap3\n      swap2\n      pop\n      pop\n      jump\t// out\n        /* \"#utility.yul\":14388:14557   */\n    tag_101:\n        /* \"#utility.yul\":14432:14438   */\n      0x00\n        /* \"#utility.yul\":14465:14516   */\n      tag_254\n        /* \"#utility.yul\":14513:14514   */\n      0x00\n        /* \"#utility.yul\":14509:14515   */\n      not\n        /* \"#utility.yul\":14501:14506   */\n      dup5\n        /* \"#utility.yul\":14498:14499   */\n      0x08\n        /* \"#utility.yul\":14494:14507   */\n      mul\n        /* \"#utility.yul\":14465:14516   */\n      tag_100\n      jump\t// in\n    tag_254:\n        /* \"#utility.yul\":14461:14517   */\n      not\n        /* \"#utility.yul\":14546:14550   */\n      dup1\n        /* \"#utility.yul\":14540:14544   */\n      dup4\n        /* \"#utility.yul\":14536:14551   */\n      and\n        /* \"#utility.yul\":14526:14551   */\n      swap2\n      pop\n        /* \"#utility.yul\":14439:14557   */\n      pop\n        /* \"#utility.yul\":14388:14557   */\n      swap3\n      swap2\n      pop\n      pop\n      jump\t// out\n        /* \"#utility.yul\":14562:14857   */\n    tag_102:\n        /* \"#utility.yul\":14638:14642   */\n      0x00\n        /* \"#utility.yul\":14784:14813   */\n      tag_256\n        /* \"#utility.yul\":14809:14812   */\n      dup4\n        /* \"#utility.yul\":14803:14807   */\n      dup4\n        /* \"#utility.yul\":14784:14813   */\n      tag_101\n      jump\t// in\n    tag_256:\n        /* \"#utility.yul\":14776:14813   */\n      swap2\n      pop\n        /* \"#utility.yul\":14846:14849   */\n      dup3\n        /* \"#utility.yul\":14843:14844   */\n      0x02\n        /* \"#utility.yul\":14839:14850   */\n      mul\n        /* \"#utility.yul\":14833:14837   */\n      dup3\n        /* \"#utility.yul\":14830:14851   */\n      or\n        /* \"#utility.yul\":14822:14851   */\n      swap1\n      pop\n        /* \"#utility.yul\":14562:14857   */\n      swap3\n      swap2\n      pop\n      pop\n      jump\t// out\n        /* \"#utility.yul\":14862:16257   */\n    tag_45:\n        /* \"#utility.yul\":14979:15016   */\n      tag_258\n        /* \"#utility.yul\":15012:15015   */\n      dup3\n        /* \"#utility.yul\":14979:15016   */\n      tag_59\n      jump\t// in\n    tag_258:\n        /* \"#utility.yul\":15081:15099   */\n      0xffffffffffffffff\n        /* \"#utility.yul\":15073:15079   */\n      dup2\n        /* \"#utility.yul\":15070:15100   */\n      gt\n        /* \"#utility.yul\":15067:15123   */\n      iszero\n      tag_259\n      jumpi\n        /* \"#utility.yul\":15103:15121   */\n      tag_260\n      tag_78\n      jump\t// in\n    tag_260:\n        /* \"#utility.yul\":15067:15123   */\n    tag_259:\n        /* \"#utility.yul\":15147:15185   */\n      tag_261\n        /* \"#utility.yul\":15179:15183   */\n      dup3\n        /* \"#utility.yul\":15173:15184   */\n      sload\n        /* \"#utility.yul\":15147:15185   */\n      tag_25\n      jump\t// in\n    tag_261:\n        /* \"#utility.yul\":15232:15299   */\n      tag_262\n        /* \"#utility.yul\":15292:15298   */\n      dup3\n        /* \"#utility.yul\":15284:15290   */\n      dup3\n        /* \"#utility.yul\":15278:15282   */\n      dup6\n        /* \"#utility.yul\":15232:15299   */\n      tag_99\n      jump\t// in\n    tag_262:\n        /* \"#utility.yul\":15326:15327   */\n      0x00\n        /* \"#utility.yul\":15350:15354   */\n      0x20\n        /* \"#utility.yul\":15337:15354   */\n      swap1\n      pop\n        /* \"#utility.yul\":15382:15384   */\n      0x1f\n        /* \"#utility.yul\":15374:15380   */\n      dup4\n        /* \"#utility.yul\":15371:15385   */\n      gt\n        /* \"#utility.yul\":15399:15400   */\n      0x01\n        /* \"#utility.yul\":15394:16012   */\n      dup2\n      eq\n      tag_264\n      jumpi\n        /* \"#utility.yul\":16056:16057   */\n      0x00\n        /* \"#utility.yul\":16073:16079   */\n      dup5\n        /* \"#utility.yul\":16070:16147   */\n      iszero\n      tag_265\n      jumpi\n        /* \"#utility.yul\":16122:16131   */\n      dup3\n        /* \"#utility.yul\":16117:16120   */\n      dup8\n        /* \"#utility.yul\":16113:16132   */\n      add\n        /* \"#utility.yul\":16107:16133   */\n      mload\n        /* \"#utility.yul\":16098:16133   */\n      swap1\n      pop\n        /* \"#utility.yul\":16070:16147   */\n    tag_265:\n        /* \"#utility.yul\":16173:16240   */\n      tag_266\n        /* \"#utility.yul\":16233:16239   */\n      dup6\n        /* \"#utility.yul\":16226:16231   */\n      dup3\n        /* \"#utility.yul\":16173:16240   */\n      tag_102\n      jump\t// in\n    tag_266:\n        /* \"#utility.yul\":16167:16171   */\n      dup7\n        /* \"#utility.yul\":16160:16241   */\n      sstore\n        /* \"#utility.yul\":16029:16251   */\n      pop\n        /* \"#utility.yul\":15364:16251   */\n      jump(tag_263)\n        /* \"#utility.yul\":15394:16012   */\n    tag_264:\n        /* \"#utility.yul\":15446:15450   */\n      0x1f\n        /* \"#utility.yul\":15442:15451   */\n      not\n        /* \"#utility.yul\":15434:15440   */\n      dup5\n        /* \"#utility.yul\":15430:15452   */\n      and\n        /* \"#utility.yul\":15480:15517   */\n      tag_267\n        /* \"#utility.yul\":15512:15516   */\n      dup7\n        /* \"#utility.yul\":15480:15517   */\n      tag_88\n      jump\t// in\n    tag_267:\n        /* \"#utility.yul\":15539:15540   */\n      0x00\n        /* \"#utility.yul\":15553:15761   */\n    tag_268:\n        /* \"#utility.yul\":15567:15574   */\n      dup3\n        /* \"#utility.yul\":15564:15565   */\n      dup2\n        /* \"#utility.yul\":15561:15575   */\n      lt\n        /* \"#utility.yul\":15553:15761   */\n      iszero\n      tag_270\n      jumpi\n        /* \"#utility.yul\":15646:15655   */\n      dup5\n        /* \"#utility.yul\":15641:15644   */\n      dup10\n        /* \"#utility.yul\":15637:15656   */\n      add\n        /* \"#utility.yul\":15631:15657   */\n      mload\n        /* \"#utility.yul\":15623:15629   */\n      dup3\n        /* \"#utility.yul\":15616:15658   */\n      sstore\n        /* \"#utility.yul\":15697:15698   */\n      0x01\n        /* \"#utility.yul\":15689:15695   */\n      dup3\n        /* \"#utility.yul\":15685:15699   */\n      add\n        /* \"#utility.yul\":15675:15699   */\n      swap2\n      pop\n        /* \"#utility.yul\":15744:15746   */\n      0x20\n        /* \"#utility.yul\":15733:15742   */\n      dup6\n        /* \"#utility.yul\":15729:15747   */\n      add\n        /* \"#utility.yul\":15716:15747   */\n      swap5\n      pop\n        /* \"#utility.yul\":15590:15594   */\n      0x20\n        /* \"#utility.yul\":15587:15588   */\n      dup2\n        /* \"#utility.yul\":15583:15595   */\n      add\n        /* \"#utility.yul\":15578:15595   */\n      swap1\n      pop\n        /* \"#utility.yul\":15553:15761   */\n      jump(tag_268)\n    tag_270:\n        /* \"#utility.yul\":15789:15795   */\n      dup7\n        /* \"#utility.yul\":15780:15787   */\n      dup4\n        /* \"#utility.yul\":15777:15796   */\n      lt\n        /* \"#utility.yul\":15774:15953   */\n      iszero\n      tag_271\n      jumpi\n        /* \"#utility.yul\":15847:15856   */\n      dup5\n        /* \"#utility.yul\":15842:15845   */\n      dup10\n        /* \"#utility.yul\":15838:15857   */\n      add\n        /* \"#utility.yul\":15832:15858   */\n      mload\n        /* \"#utility.yul\":15890:15938   */\n      tag_272\n        /* \"#utility.yul\":15932:15936   */\n      0x1f\n        /* \"#utility.yul\":15924:15930   */\n      dup10\n        /* \"#utility.yul\":15920:15937   */\n      and\n        /* \"#utility.yul\":15909:15918   */\n      dup3\n        /* \"#utility.yul\":15890:15938   */\n      tag_101\n      jump\t// in\n    tag_272:\n        /* \"#utility.yul\":15882:15888   */\n      dup4\n        /* \"#utility.yul\":15875:15939   */\n      sstore\n        /* \"#utility.yul\":15797:15953   */\n      pop\n        /* \"#utility.yul\":15774:15953   */\n    tag_271:\n        /* \"#utility.yul\":15999:16000   */\n      0x01\n        /* \"#utility.yul\":15995:15996   */\n      0x02\n        /* \"#utility.yul\":15987:15993   */\n      dup9\n        /* \"#utility.yul\":15983:15997   */\n      mul\n        /* \"#utility.yul\":15979:16001   */\n      add\n        /* \"#utility.yul\":15973:15977   */\n      dup9\n        /* \"#utility.yul\":15966:16002   */\n      sstore\n        /* \"#utility.yul\":15401:16012   */\n      pop\n      pop\n      pop\n        /* \"#utility.yul\":15364:16251   */\n    tag_263:\n      pop\n        /* \"#utility.yul\":14954:16257   */\n      pop\n      pop\n      pop\n        /* \"#utility.yul\":14862:16257   */\n      pop\n      pop\n      jump\t// out\n        /* \"#utility.yul\":16263:16686   */\n    tag_47:\n        /* \"#utility.yul\":16404:16408   */\n      0x00\n        /* \"#utility.yul\":16442:16444   */\n      0x40\n        /* \"#utility.yul\":16431:16440   */\n      dup3\n        /* \"#utility.yul\":16427:16445   */\n      add\n        /* \"#utility.yul\":16419:16445   */\n      swap1\n      pop\n        /* \"#utility.yul\":16491:16500   */\n      dup2\n        /* \"#utility.yul\":16485:16489   */\n      dup2\n        /* \"#utility.yul\":16481:16501   */\n      sub\n        /* \"#utility.yul\":16477:16478   */\n      0x00\n        /* \"#utility.yul\":16466:16475   */\n      dup4\n        /* \"#utility.yul\":16462:16479   */\n      add\n        /* \"#utility.yul\":16455:16502   */\n      mstore\n        /* \"#utility.yul\":16519:16597   */\n      tag_274\n        /* \"#utility.yul\":16592:16596   */\n      dup2\n        /* \"#utility.yul\":16583:16589   */\n      dup6\n        /* \"#utility.yul\":16519:16597   */\n      tag_63\n      jump\t// in\n    tag_274:\n        /* \"#utility.yul\":16511:16597   */\n      swap1\n      pop\n        /* \"#utility.yul\":16607:16679   */\n      tag_275\n        /* \"#utility.yul\":16675:16677   */\n      0x20\n        /* \"#utility.yul\":16664:16673   */\n      dup4\n        /* \"#utility.yul\":16660:16678   */\n      add\n        /* \"#utility.yul\":16651:16657   */\n      dup5\n        /* \"#utility.yul\":16607:16679   */\n      tag_64\n      jump\t// in\n    tag_275:\n        /* \"#utility.yul\":16263:16686   */\n      swap4\n      swap3\n      pop\n      pop\n      pop\n      jump\t// out\n\n    auxdata: 0xa26469706673582212205089d3399011d1450560c86431a0074ac6aa0bf120acef2c6d0679d0a260b00b64736f6c634300081e0033\n}\n",
				"bytecode": {
					"linkReferences": {},
					"object": "6080604052348015600e575f5ffd5b50610d298061001c5f395ff3fe608060405234801561000f575f5ffd5b506004361061003f575f3560e01c806305a1b4a91461004357806358b93cfd146100755780637c9cd2bc146100a5575b5f5ffd5b61005d6004803603810190610058919061055d565b6100c1565b60405161006c93929190610629565b60405180910390f35b61008f600480360381019061008a9190610665565b6101a5565b60405161009c91906107fe565b60405180910390f35b6100bf60048036038101906100ba919061094a565b61032b565b005b5f602052815f5260405f2081815481106100d9575f80fd5b905f5260205f2090600302015f9150915050805f015f9054906101000a900473ffffffffffffffffffffffffffffffffffffffff169080600101805461011e906109be565b80601f016020809104026020016040519081016040528092919081815260200182805461014a906109be565b80156101955780601f1061016c57610100808354040283529160200191610195565b820191905f5260205f20905b81548152906001019060200180831161017857829003601f168201915b5050505050908060020154905083565b60605f5f8373ffffffffffffffffffffffffffffffffffffffff1673ffffffffffffffffffffffffffffffffffffffff1681526020019081526020015f20805480602002602001604051908101604052809291908181526020015f905b82821015610320578382905f5260205f2090600302016040518060600160405290815f82015f9054906101000a900473ffffffffffffffffffffffffffffffffffffffff1673ffffffffffffffffffffffffffffffffffffffff1673ffffffffffffffffffffffffffffffffffffffff168152602001600182018054610287906109be565b80601f01602080910402602001604051908101604052809291908181526020018280546102b3906109be565b80156102fe5780601f106102d5576101008083540402835291602001916102fe565b820191905f5260205f20905b8154815290600101906020018083116102e157829003601f168201915b5050505050815260200160028201548152505081526020019060010190610202565b505050509050919050565b5f81511161036e576040517f08c379a000000000000000000000000000000000000000000000000000000000815260040161036590610a38565b60405180910390fd5b5f60405180606001604052803373ffffffffffffffffffffffffffffffffffffffff1681526020018381526020014281525090505f5f3373ffffffffffffffffffffffffffffffffffffffff1673ffffffffffffffffffffffffffffffffffffffff1681526020019081526020015f2081908060018154018082558091505060019003905f5260205f2090600302015f909190919091505f820151815f015f6101000a81548173ffffffffffffffffffffffffffffffffffffffff021916908373ffffffffffffffffffffffffffffffffffffffff160217905550602082015181600101908161045e9190610bf6565b506040820151816002015550503373ffffffffffffffffffffffffffffffffffffffff167fc933feff23f11bfe7d86d82bdd0aff8b92373983b105d321731056945472dca683426040516104b3929190610cc5565b60405180910390a25050565b5f604051905090565b5f5ffd5b5f5ffd5b5f73ffffffffffffffffffffffffffffffffffffffff82169050919050565b5f6104f9826104d0565b9050919050565b610509816104ef565b8114610513575f5ffd5b50565b5f8135905061052481610500565b92915050565b5f819050919050565b61053c8161052a565b8114610546575f5ffd5b50565b5f8135905061055781610533565b92915050565b5f5f60408385031215610573576105726104c8565b5b5f61058085828601610516565b925050602061059185828601610549565b9150509250929050565b6105a4816104ef565b82525050565b5f81519050919050565b5f82825260208201905092915050565b8281835e5f83830152505050565b5f601f19601f8301169050919050565b5f6105ec826105aa565b6105f681856105b4565b93506106068185602086016105c4565b61060f816105d2565b840191505092915050565b6106238161052a565b82525050565b5f60608201905061063c5f83018661059b565b818103602083015261064e81856105e2565b905061065d604083018461061a565b949350505050565b5f6020828403121561067a576106796104c8565b5b5f61068784828501610516565b91505092915050565b5f81519050919050565b5f82825260208201905092915050565b5f819050602082019050919050565b6106c2816104ef565b82525050565b5f82825260208201905092915050565b5f6106e2826105aa565b6106ec81856106c8565b93506106fc8185602086016105c4565b610705816105d2565b840191505092915050565b6107198161052a565b82525050565b5f606083015f8301516107345f8601826106b9565b506020830151848203602086015261074c82826106d8565b91505060408301516107616040860182610710565b508091505092915050565b5f610777838361071f565b905092915050565b5f602082019050919050565b5f61079582610690565b61079f818561069a565b9350836020820285016107b1856106aa565b805f5b858110156107ec57848403895281516107cd858261076c565b94506107d88361077f565b925060208a019950506001810190506107b4565b50829750879550505050505092915050565b5f6020820190508181035f830152610816818461078b565b905092915050565b5f5ffd5b5f5ffd5b7f4e487b71000000000000000000000000000000000000000000000000000000005f52604160045260245ffd5b61085c826105d2565b810181811067ffffffffffffffff8211171561087b5761087a610826565b5b80604052505050565b5f61088d6104bf565b90506108998282610853565b919050565b5f67ffffffffffffffff8211156108b8576108b7610826565b5b6108c1826105d2565b9050602081019050919050565b828183375f83830152505050565b5f6108ee6108e98461089e565b610884565b90508281526020810184848401111561090a57610909610822565b5b6109158482856108ce565b509392505050565b5f82601f8301126109315761093061081e565b5b81356109418482602086016108dc565b91505092915050565b5f6020828403121561095f5761095e6104c8565b5b5f82013567ffffffffffffffff81111561097c5761097b6104cc565b5b6109888482850161091d565b91505092915050565b7f4e487b71000000000000000000000000000000000000000000000000000000005f52602260045260245ffd5b5f60028204905060018216806109d557607f821691505b6020821081036109e8576109e7610991565b5b50919050565b7f547765657420636f6e74656e742063616e6e6f7420626520656d7074790000005f82015250565b5f610a22601d836105b4565b9150610a2d826109ee565b602082019050919050565b5f6020820190508181035f830152610a4f81610a16565b9050919050565b5f819050815f5260205f209050919050565b5f6020601f8301049050919050565b5f82821b905092915050565b5f60088302610ab27fffffffffffffffffffffffffffffffffffffffffffffffffffffffffffffffff82610a77565b610abc8683610a77565b95508019841693508086168417925050509392505050565b5f819050919050565b5f610af7610af2610aed8461052a565b610ad4565b61052a565b9050919050565b5f819050919050565b610b1083610add565b610b24610b1c82610afe565b848454610a83565b825550505050565b5f5f905090565b610b3b610b2c565b610b46818484610b07565b505050565b5b81811015610b6957610b5e5f82610b33565b600181019050610b4c565b5050565b601f821115610bae57610b7f81610a56565b610b8884610a68565b81016020851015610b97578190505b610bab610ba385610a68565b830182610b4b565b50505b505050565b5f82821c905092915050565b5f610bce5f1984600802610bb3565b1980831691505092915050565b5f610be68383610bbf565b9150826002028217905092915050565b610bff826105aa565b67ffffffffffffffff811115610c1857610c17610826565b5b610c2282546109be565b610c2d828285610b6d565b5f60209050601f831160018114610c5e575f8415610c4c578287015190505b610c568582610bdb565b865550610cbd565b601f198416610c6c86610a56565b5f5b82811015610c9357848901518255600182019150602085019450602081019050610c6e565b86831015610cb05784890151610cac601f891682610bbf565b8355505b6001600288020188555050505b505050505050565b5f6040820190508181035f830152610cdd81856105e2565b9050610cec602083018461061a565b939250505056fea26469706673582212205089d3399011d1450560c86431a0074ac6aa0bf120acef2c6d0679d0a260b00b64736f6c634300081e0033",
					"opcodes": "PUSH1 0x80 PUSH1 0x40 MSTORE CALLVALUE DUP1 ISZERO PUSH1 0xE JUMPI PUSH0 PUSH0 REVERT JUMPDEST POP PUSH2 0xD29 DUP1 PUSH2 0x1C PUSH0 CODECOPY PUSH0 RETURN INVALID PUSH1 0x80 PUSH1 0x40 MSTORE CALLVALUE DUP1 ISZERO PUSH2 0xF JUMPI PUSH0 PUSH0 REVERT JUMPDEST POP PUSH1 0x4 CALLDATASIZE LT PUSH2 0x3F JUMPI PUSH0 CALLDATALOAD PUSH1 0xE0 SHR DUP1 PUSH4 0x5A1B4A9 EQ PUSH2 0x43 JUMPI DUP1 PUSH4 0x58B93CFD EQ PUSH2 0x75 JUMPI DUP1 PUSH4 0x7C9CD2BC EQ PUSH2 0xA5 JUMPI JUMPDEST PUSH0 PUSH0 REVERT JUMPDEST PUSH2 0x5D PUSH1 0x4 DUP1 CALLDATASIZE SUB DUP2 ADD SWAP1 PUSH2 0x58 SWAP2 SWAP1 PUSH2 0x55D JUMP JUMPDEST PUSH2 0xC1 JUMP JUMPDEST PUSH1 0x40 MLOAD PUSH2 0x6C SWAP4 SWAP3 SWAP2 SWAP1 PUSH2 0x629 JUMP JUMPDEST PUSH1 0x40 MLOAD DUP1 SWAP2 SUB SWAP1 RETURN JUMPDEST PUSH2 0x8F PUSH1 0x4 DUP1 CALLDATASIZE SUB DUP2 ADD SWAP1 PUSH2 0x8A SWAP2 SWAP1 PUSH2 0x665 JUMP JUMPDEST PUSH2 0x1A5 JUMP JUMPDEST PUSH1 0x40 MLOAD PUSH2 0x9C SWAP2 SWAP1 PUSH2 0x7FE JUMP JUMPDEST PUSH1 0x40 MLOAD DUP1 SWAP2 SUB SWAP1 RETURN JUMPDEST PUSH2 0xBF PUSH1 0x4 DUP1 CALLDATASIZE SUB DUP2 ADD SWAP1 PUSH2 0xBA SWAP2 SWAP1 PUSH2 0x94A JUMP JUMPDEST PUSH2 0x32B JUMP JUMPDEST STOP JUMPDEST PUSH0 PUSH1 0x20 MSTORE DUP2 PUSH0 MSTORE PUSH1 0x40 PUSH0 KECCAK256 DUP2 DUP2 SLOAD DUP2 LT PUSH2 0xD9 JUMPI PUSH0 DUP1 REVERT JUMPDEST SWAP1 PUSH0 MSTORE PUSH1 0x20 PUSH0 KECCAK256 SWAP1 PUSH1 0x3 MUL ADD PUSH0 SWAP2 POP SWAP2 POP POP DUP1 PUSH0 ADD PUSH0 SWAP1 SLOAD SWAP1 PUSH2 0x100 EXP SWAP1 DIV PUSH20 0xFFFFFFFFFFFFFFFFFFFFFFFFFFFFFFFFFFFFFFFF AND SWAP1 DUP1 PUSH1 0x1 ADD DUP1 SLOAD PUSH2 0x11E SWAP1 PUSH2 0x9BE JUMP JUMPDEST DUP1 PUSH1 0x1F ADD PUSH1 0x20 DUP1 SWAP2 DIV MUL PUSH1 0x20 ADD PUSH1 0x40 MLOAD SWAP1 DUP2 ADD PUSH1 0x40 MSTORE DUP1 SWAP3 SWAP2 SWAP1 DUP2 DUP2 MSTORE PUSH1 0x20 ADD DUP3 DUP1 SLOAD PUSH2 0x14A SWAP1 PUSH2 0x9BE JUMP JUMPDEST DUP1 ISZERO PUSH2 0x195 JUMPI DUP1 PUSH1 0x1F LT PUSH2 0x16C JUMPI PUSH2 0x100 DUP1 DUP4 SLOAD DIV MUL DUP4 MSTORE SWAP2 PUSH1 0x20 ADD SWAP2 PUSH2 0x195 JUMP JUMPDEST DUP3 ADD SWAP2 SWAP1 PUSH0 MSTORE PUSH1 0x20 PUSH0 KECCAK256 SWAP1 JUMPDEST DUP2 SLOAD DUP2 MSTORE SWAP1 PUSH1 0x1 ADD SWAP1 PUSH1 0x20 ADD DUP1 DUP4 GT PUSH2 0x178 JUMPI DUP3 SWAP1 SUB PUSH1 0x1F AND DUP3 ADD SWAP2 JUMPDEST POP POP POP POP POP SWAP1 DUP1 PUSH1 0x2 ADD SLOAD SWAP1 POP DUP4 JUMP JUMPDEST PUSH1 0x60 PUSH0 PUSH0 DUP4 PUSH20 0xFFFFFFFFFFFFFFFFFFFFFFFFFFFFFFFFFFFFFFFF AND PUSH20 0xFFFFFFFFFFFFFFFFFFFFFFFFFFFFFFFFFFFFFFFF AND DUP2 MSTORE PUSH1 0x20 ADD SWAP1 DUP2 MSTORE PUSH1 0x20 ADD PUSH0 KECCAK256 DUP1 SLOAD DUP1 PUSH1 0x20 MUL PUSH1 0x20 ADD PUSH1 0x40 MLOAD SWAP1 DUP2 ADD PUSH1 0x40 MSTORE DUP1 SWAP3 SWAP2 SWAP1 DUP2 DUP2 MSTORE PUSH1 0x20 ADD PUSH0 SWAP1 JUMPDEST DUP3 DUP3 LT ISZERO PUSH2 0x320 JUMPI DUP4 DUP3 SWAP1 PUSH0 MSTORE PUSH1 0x20 PUSH0 KECCAK256 SWAP1 PUSH1 0x3 MUL ADD PUSH1 0x40 MLOAD DUP1 PUSH1 0x60 ADD PUSH1 0x40 MSTORE SWAP1 DUP2 PUSH0 DUP3 ADD PUSH0 SWAP1 SLOAD SWAP1 PUSH2 0x100 EXP SWAP1 DIV PUSH20 0xFFFFFFFFFFFFFFFFFFFFFFFFFFFFFFFFFFFFFFFF AND PUSH20 0xFFFFFFFFFFFFFFFFFFFFFFFFFFFFFFFFFFFFFFFF AND PUSH20 0xFFFFFFFFFFFFFFFFFFFFFFFFFFFFFFFFFFFFFFFF AND DUP2 MSTORE PUSH1 0x20 ADD PUSH1 0x1 DUP3 ADD DUP1 SLOAD PUSH2 0x287 SWAP1 PUSH2 0x9BE JUMP JUMPDEST DUP1 PUSH1 0x1F ADD PUSH1 0x20 DUP1 SWAP2 DIV MUL PUSH1 0x20 ADD PUSH1 0x40 MLOAD SWAP1 DUP2 ADD PUSH1 0x40 MSTORE DUP1 SWAP3 SWAP2 SWAP1 DUP2 DUP2 MSTORE PUSH1 0x20 ADD DUP3 DUP1 SLOAD PUSH2 0x2B3 SWAP1 PUSH2 0x9BE JUMP JUMPDEST DUP1 ISZERO PUSH2 0x2FE JUMPI DUP1 PUSH1 0x1F LT PUSH2 0x2D5 JUMPI PUSH2 0x100 DUP1 DUP4 SLOAD DIV MUL DUP4 MSTORE SWAP2 PUSH1 0x20 ADD SWAP2 PUSH2 0x2FE JUMP JUMPDEST DUP3 ADD SWAP2 SWAP1 PUSH0 MSTORE PUSH1 0x20 PUSH0 KECCAK256 SWAP1 JUMPDEST DUP2 SLOAD DUP2 MSTORE SWAP1 PUSH1 0x1 ADD SWAP1 PUSH1 0x20 ADD DUP1 DUP4 GT PUSH2 0x2E1 JUMPI DUP3 SWAP1 SUB PUSH1 0x1F AND DUP3 ADD SWAP2 JUMPDEST POP POP POP POP POP DUP2 MSTORE PUSH1 0x20 ADD PUSH1 0x2 DUP3 ADD SLOAD DUP2 MSTORE POP POP DUP2 MSTORE PUSH1 0x20 ADD SWAP1 PUSH1 0x1 ADD SWAP1 PUSH2 0x202 JUMP JUMPDEST POP POP POP POP SWAP1 POP SWAP2 SWAP1 POP JUMP JUMPDEST PUSH0 DUP2 MLOAD GT PUSH2 0x36E JUMPI PUSH1 0x40 MLOAD PUSH32 0x8C379A000000000000000000000000000000000000000000000000000000000 DUP2 MSTORE PUSH1 0x4 ADD PUSH2 0x365 SWAP1 PUSH2 0xA38 JUMP JUMPDEST PUSH1 0x40 MLOAD DUP1 SWAP2 SUB SWAP1 REVERT JUMPDEST PUSH0 PUSH1 0x40 MLOAD DUP1 PUSH1 0x60 ADD PUSH1 0x40 MSTORE DUP1 CALLER PUSH20 0xFFFFFFFFFFFFFFFFFFFFFFFFFFFFFFFFFFFFFFFF AND DUP2 MSTORE PUSH1 0x20 ADD DUP4 DUP2 MSTORE PUSH1 0x20 ADD TIMESTAMP DUP2 MSTORE POP SWAP1 POP PUSH0 PUSH0 CALLER PUSH20 0xFFFFFFFFFFFFFFFFFFFFFFFFFFFFFFFFFFFFFFFF AND PUSH20 0xFFFFFFFFFFFFFFFFFFFFFFFFFFFFFFFFFFFFFFFF AND DUP2 MSTORE PUSH1 0x20 ADD SWAP1 DUP2 MSTORE PUSH1 0x20 ADD PUSH0 KECCAK256 DUP2 SWAP1 DUP1 PUSH1 0x1 DUP2 SLOAD ADD DUP1 DUP3 SSTORE DUP1 SWAP2 POP POP PUSH1 0x1 SWAP1 SUB SWAP1 PUSH0 MSTORE PUSH1 0x20 PUSH0 KECCAK256 SWAP1 PUSH1 0x3 MUL ADD PUSH0 SWAP1 SWAP2 SWAP1 SWAP2 SWAP1 SWAP2 POP PUSH0 DUP3 ADD MLOAD DUP2 PUSH0 ADD PUSH0 PUSH2 0x100 EXP DUP2 SLOAD DUP2 PUSH20 0xFFFFFFFFFFFFFFFFFFFFFFFFFFFFFFFFFFFFFFFF MUL NOT AND SWAP1 DUP4 PUSH20 0xFFFFFFFFFFFFFFFFFFFFFFFFFFFFFFFFFFFFFFFF AND MUL OR SWAP1 SSTORE POP PUSH1 0x20 DUP3 ADD MLOAD DUP2 PUSH1 0x1 ADD SWAP1 DUP2 PUSH2 0x45E SWAP2 SWAP1 PUSH2 0xBF6 JUMP JUMPDEST POP PUSH1 0x40 DUP3 ADD MLOAD DUP2 PUSH1 0x2 ADD SSTORE POP POP CALLER PUSH20 0xFFFFFFFFFFFFFFFFFFFFFFFFFFFFFFFFFFFFFFFF AND PUSH32 0xC933FEFF23F11BFE7D86D82BDD0AFF8B92373983B105D321731056945472DCA6 DUP4 TIMESTAMP PUSH1 0x40 MLOAD PUSH2 0x4B3 SWAP3 SWAP2 SWAP1 PUSH2 0xCC5 JUMP JUMPDEST PUSH1 0x40 MLOAD DUP1 SWAP2 SUB SWAP1 LOG2 POP POP JUMP JUMPDEST PUSH0 PUSH1 0x40 MLOAD SWAP1 POP SWAP1 JUMP JUMPDEST PUSH0 PUSH0 REVERT JUMPDEST PUSH0 PUSH0 REVERT JUMPDEST PUSH0 PUSH20 0xFFFFFFFFFFFFFFFFFFFFFFFFFFFFFFFFFFFFFFFF DUP3 AND SWAP1 POP SWAP2 SWAP1 POP JUMP JUMPDEST PUSH0 PUSH2 0x4F9 DUP3 PUSH2 0x4D0 JUMP JUMPDEST SWAP1 POP SWAP2 SWAP1 POP JUMP JUMPDEST PUSH2 0x509 DUP2 PUSH2 0x4EF JUMP JUMPDEST DUP2 EQ PUSH2 0x513 JUMPI PUSH0 PUSH0 REVERT JUMPDEST POP JUMP JUMPDEST PUSH0 DUP2 CALLDATALOAD SWAP1 POP PUSH2 0x524 DUP2 PUSH2 0x500 JUMP JUMPDEST SWAP3 SWAP2 POP POP JUMP JUMPDEST PUSH0 DUP2 SWAP1 POP SWAP2 SWAP1 POP JUMP JUMPDEST PUSH2 0x53C DUP2 PUSH2 0x52A JUMP JUMPDEST DUP2 EQ PUSH2 0x546 JUMPI PUSH0 PUSH0 REVERT JUMPDEST POP JUMP JUMPDEST PUSH0 DUP2 CALLDATALOAD SWAP1 POP PUSH2 0x557 DUP2 PUSH2 0x533 JUMP JUMPDEST SWAP3 SWAP2 POP POP JUMP JUMPDEST PUSH0 PUSH0 PUSH1 0x40 DUP4 DUP6 SUB SLT ISZERO PUSH2 0x573 JUMPI PUSH2 0x572 PUSH2 0x4C8 JUMP JUMPDEST JUMPDEST PUSH0 PUSH2 0x580 DUP6 DUP3 DUP7 ADD PUSH2 0x516 JUMP JUMPDEST SWAP3 POP POP PUSH1 0x20 PUSH2 0x591 DUP6 DUP3 DUP7 ADD PUSH2 0x549 JUMP JUMPDEST SWAP2 POP POP SWAP3 POP SWAP3 SWAP1 POP JUMP JUMPDEST PUSH2 0x5A4 DUP2 PUSH2 0x4EF JUMP JUMPDEST DUP3 MSTORE POP POP JUMP JUMPDEST PUSH0 DUP2 MLOAD SWAP1 POP SWAP2 SWAP1 POP JUMP JUMPDEST PUSH0 DUP3 DUP3 MSTORE PUSH1 0x20 DUP3 ADD SWAP1 POP SWAP3 SWAP2 POP POP JUMP JUMPDEST DUP3 DUP2 DUP4 MCOPY PUSH0 DUP4 DUP4 ADD MSTORE POP POP POP JUMP JUMPDEST PUSH0 PUSH1 0x1F NOT PUSH1 0x1F DUP4 ADD AND SWAP1 POP SWAP2 SWAP1 POP JUMP JUMPDEST PUSH0 PUSH2 0x5EC DUP3 PUSH2 0x5AA JUMP JUMPDEST PUSH2 0x5F6 DUP2 DUP6 PUSH2 0x5B4 JUMP JUMPDEST SWAP4 POP PUSH2 0x606 DUP2 DUP6 PUSH1 0x20 DUP7 ADD PUSH2 0x5C4 JUMP JUMPDEST PUSH2 0x60F DUP2 PUSH2 0x5D2 JUMP JUMPDEST DUP5 ADD SWAP2 POP POP SWAP3 SWAP2 POP POP JUMP JUMPDEST PUSH2 0x623 DUP2 PUSH2 0x52A JUMP JUMPDEST DUP3 MSTORE POP POP JUMP JUMPDEST PUSH0 PUSH1 0x60 DUP3 ADD SWAP1 POP PUSH2 0x63C PUSH0 DUP4 ADD DUP7 PUSH2 0x59B JUMP JUMPDEST DUP2 DUP2 SUB PUSH1 0x20 DUP4 ADD MSTORE PUSH2 0x64E DUP2 DUP6 PUSH2 0x5E2 JUMP JUMPDEST SWAP1 POP PUSH2 0x65D PUSH1 0x40 DUP4 ADD DUP5 PUSH2 0x61A JUMP JUMPDEST SWAP5 SWAP4 POP POP POP POP JUMP JUMPDEST PUSH0 PUSH1 0x20 DUP3 DUP5 SUB SLT ISZERO PUSH2 0x67A JUMPI PUSH2 0x679 PUSH2 0x4C8 JUMP JUMPDEST JUMPDEST PUSH0 PUSH2 0x687 DUP5 DUP3 DUP6 ADD PUSH2 0x516 JUMP JUMPDEST SWAP2 POP POP SWAP3 SWAP2 POP POP JUMP JUMPDEST PUSH0 DUP2 MLOAD SWAP1 POP SWAP2 SWAP1 POP JUMP JUMPDEST PUSH0 DUP3 DUP3 MSTORE PUSH1 0x20 DUP3 ADD SWAP1 POP SWAP3 SWAP2 POP POP JUMP JUMPDEST PUSH0 DUP2 SWAP1 POP PUSH1 0x20 DUP3 ADD SWAP1 POP SWAP2 SWAP1 POP JUMP JUMPDEST PUSH2 0x6C2 DUP2 PUSH2 0x4EF JUMP JUMPDEST DUP3 MSTORE POP POP JUMP JUMPDEST PUSH0 DUP3 DUP3 MSTORE PUSH1 0x20 DUP3 ADD SWAP1 POP SWAP3 SWAP2 POP POP JUMP JUMPDEST PUSH0 PUSH2 0x6E2 DUP3 PUSH2 0x5AA JUMP JUMPDEST PUSH2 0x6EC DUP2 DUP6 PUSH2 0x6C8 JUMP JUMPDEST SWAP4 POP PUSH2 0x6FC DUP2 DUP6 PUSH1 0x20 DUP7 ADD PUSH2 0x5C4 JUMP JUMPDEST PUSH2 0x705 DUP2 PUSH2 0x5D2 JUMP JUMPDEST DUP5 ADD SWAP2 POP POP SWAP3 SWAP2 POP POP JUMP JUMPDEST PUSH2 0x719 DUP2 PUSH2 0x52A JUMP JUMPDEST DUP3 MSTORE POP POP JUMP JUMPDEST PUSH0 PUSH1 0x60 DUP4 ADD PUSH0 DUP4 ADD MLOAD PUSH2 0x734 PUSH0 DUP7 ADD DUP3 PUSH2 0x6B9 JUMP JUMPDEST POP PUSH1 0x20 DUP4 ADD MLOAD DUP5 DUP3 SUB PUSH1 0x20 DUP7 ADD MSTORE PUSH2 0x74C DUP3 DUP3 PUSH2 0x6D8 JUMP JUMPDEST SWAP2 POP POP PUSH1 0x40 DUP4 ADD MLOAD PUSH2 0x761 PUSH1 0x40 DUP7 ADD DUP3 PUSH2 0x710 JUMP JUMPDEST POP DUP1 SWAP2 POP POP SWAP3 SWAP2 POP POP JUMP JUMPDEST PUSH0 PUSH2 0x777 DUP4 DUP4 PUSH2 0x71F JUMP JUMPDEST SWAP1 POP SWAP3 SWAP2 POP POP JUMP JUMPDEST PUSH0 PUSH1 0x20 DUP3 ADD SWAP1 POP SWAP2 SWAP1 POP JUMP JUMPDEST PUSH0 PUSH2 0x795 DUP3 PUSH2 0x690 JUMP JUMPDEST PUSH2 0x79F DUP2 DUP6 PUSH2 0x69A JUMP JUMPDEST SWAP4 POP DUP4 PUSH1 0x20 DUP3 MUL DUP6 ADD PUSH2 0x7B1 DUP6 PUSH2 0x6AA JUMP JUMPDEST DUP1 PUSH0 JUMPDEST DUP6 DUP2 LT ISZERO PUSH2 0x7EC JUMPI DUP5 DUP5 SUB DUP10 MSTORE DUP2 MLOAD PUSH2 0x7CD DUP6 DUP3 PUSH2 0x76C JUMP JUMPDEST SWAP5 POP PUSH2 0x7D8 DUP4 PUSH2 0x77F JUMP JUMPDEST SWAP3 POP PUSH1 0x20 DUP11 ADD SWAP10 POP POP PUSH1 0x1 DUP2 ADD SWAP1 POP PUSH2 0x7B4 JUMP JUMPDEST POP DUP3 SWAP8 POP DUP8 SWAP6 POP POP POP POP POP POP SWAP3 SWAP2 POP POP JUMP JUMPDEST PUSH0 PUSH1 0x20 DUP3 ADD SWAP1 POP DUP2 DUP2 SUB PUSH0 DUP4 ADD MSTORE PUSH2 0x816 DUP2 DUP5 PUSH2 0x78B JUMP JUMPDEST SWAP1 POP SWAP3 SWAP2 POP POP JUMP JUMPDEST PUSH0 PUSH0 REVERT JUMPDEST PUSH0 PUSH0 REVERT JUMPDEST PUSH32 0x4E487B7100000000000000000000000000000000000000000000000000000000 PUSH0 MSTORE PUSH1 0x41 PUSH1 0x4 MSTORE PUSH1 0x24 PUSH0 REVERT JUMPDEST PUSH2 0x85C DUP3 PUSH2 0x5D2 JUMP JUMPDEST DUP2 ADD DUP2 DUP2 LT PUSH8 0xFFFFFFFFFFFFFFFF DUP3 GT OR ISZERO PUSH2 0x87B JUMPI PUSH2 0x87A PUSH2 0x826 JUMP JUMPDEST JUMPDEST DUP1 PUSH1 0x40 MSTORE POP POP POP JUMP JUMPDEST PUSH0 PUSH2 0x88D PUSH2 0x4BF JUMP JUMPDEST SWAP1 POP PUSH2 0x899 DUP3 DUP3 PUSH2 0x853 JUMP JUMPDEST SWAP2 SWAP1 POP JUMP JUMPDEST PUSH0 PUSH8 0xFFFFFFFFFFFFFFFF DUP3 GT ISZERO PUSH2 0x8B8 JUMPI PUSH2 0x8B7 PUSH2 0x826 JUMP JUMPDEST JUMPDEST PUSH2 0x8C1 DUP3 PUSH2 0x5D2 JUMP JUMPDEST SWAP1 POP PUSH1 0x20 DUP2 ADD SWAP1 POP SWAP2 SWAP1 POP JUMP JUMPDEST DUP3 DUP2 DUP4 CALLDATACOPY PUSH0 DUP4 DUP4 ADD MSTORE POP POP POP JUMP JUMPDEST PUSH0 PUSH2 0x8EE PUSH2 0x8E9 DUP5 PUSH2 0x89E JUMP JUMPDEST PUSH2 0x884 JUMP JUMPDEST SWAP1 POP DUP3 DUP2 MSTORE PUSH1 0x20 DUP2 ADD DUP5 DUP5 DUP5 ADD GT ISZERO PUSH2 0x90A JUMPI PUSH2 0x909 PUSH2 0x822 JUMP JUMPDEST JUMPDEST PUSH2 0x915 DUP5 DUP3 DUP6 PUSH2 0x8CE JUMP JUMPDEST POP SWAP4 SWAP3 POP POP POP JUMP JUMPDEST PUSH0 DUP3 PUSH1 0x1F DUP4 ADD SLT PUSH2 0x931 JUMPI PUSH2 0x930 PUSH2 0x81E JUMP JUMPDEST JUMPDEST DUP2 CALLDATALOAD PUSH2 0x941 DUP5 DUP3 PUSH1 0x20 DUP7 ADD PUSH2 0x8DC JUMP JUMPDEST SWAP2 POP POP SWAP3 SWAP2 POP POP JUMP JUMPDEST PUSH0 PUSH1 0x20 DUP3 DUP5 SUB SLT ISZERO PUSH2 0x95F JUMPI PUSH2 0x95E PUSH2 0x4C8 JUMP JUMPDEST JUMPDEST PUSH0 DUP3 ADD CALLDATALOAD PUSH8 0xFFFFFFFFFFFFFFFF DUP2 GT ISZERO PUSH2 0x97C JUMPI PUSH2 0x97B PUSH2 0x4CC JUMP JUMPDEST JUMPDEST PUSH2 0x988 DUP5 DUP3 DUP6 ADD PUSH2 0x91D JUMP JUMPDEST SWAP2 POP POP SWAP3 SWAP2 POP POP JUMP JUMPDEST PUSH32 0x4E487B7100000000000000000000000000000000000000000000000000000000 PUSH0 MSTORE PUSH1 0x22 PUSH1 0x4 MSTORE PUSH1 0x24 PUSH0 REVERT JUMPDEST PUSH0 PUSH1 0x2 DUP3 DIV SWAP1 POP PUSH1 0x1 DUP3 AND DUP1 PUSH2 0x9D5 JUMPI PUSH1 0x7F DUP3 AND SWAP2 POP JUMPDEST PUSH1 0x20 DUP3 LT DUP2 SUB PUSH2 0x9E8 JUMPI PUSH2 0x9E7 PUSH2 0x991 JUMP JUMPDEST JUMPDEST POP SWAP2 SWAP1 POP JUMP JUMPDEST PUSH32 0x547765657420636F6E74656E742063616E6E6F7420626520656D707479000000 PUSH0 DUP3 ADD MSTORE POP JUMP JUMPDEST PUSH0 PUSH2 0xA22 PUSH1 0x1D DUP4 PUSH2 0x5B4 JUMP JUMPDEST SWAP2 POP PUSH2 0xA2D DUP3 PUSH2 0x9EE JUMP JUMPDEST PUSH1 0x20 DUP3 ADD SWAP1 POP SWAP2 SWAP1 POP JUMP JUMPDEST PUSH0 PUSH1 0x20 DUP3 ADD SWAP1 POP DUP2 DUP2 SUB PUSH0 DUP4 ADD MSTORE PUSH2 0xA4F DUP2 PUSH2 0xA16 JUMP JUMPDEST SWAP1 POP SWAP2 SWAP1 POP JUMP JUMPDEST PUSH0 DUP2 SWAP1 POP DUP2 PUSH0 MSTORE PUSH1 0x20 PUSH0 KECCAK256 SWAP1 POP SWAP2 SWAP1 POP JUMP JUMPDEST PUSH0 PUSH1 0x20 PUSH1 0x1F DUP4 ADD DIV SWAP1 POP SWAP2 SWAP1 POP JUMP JUMPDEST PUSH0 DUP3 DUP3 SHL SWAP1 POP SWAP3 SWAP2 POP POP JUMP JUMPDEST PUSH0 PUSH1 0x8 DUP4 MUL PUSH2 0xAB2 PUSH32 0xFFFFFFFFFFFFFFFFFFFFFFFFFFFFFFFFFFFFFFFFFFFFFFFFFFFFFFFFFFFFFFFF DUP3 PUSH2 0xA77 JUMP JUMPDEST PUSH2 0xABC DUP7 DUP4 PUSH2 0xA77 JUMP JUMPDEST SWAP6 POP DUP1 NOT DUP5 AND SWAP4 POP DUP1 DUP7 AND DUP5 OR SWAP3 POP POP POP SWAP4 SWAP3 POP POP POP JUMP JUMPDEST PUSH0 DUP2 SWAP1 POP SWAP2 SWAP1 POP JUMP JUMPDEST PUSH0 PUSH2 0xAF7 PUSH2 0xAF2 PUSH2 0xAED DUP5 PUSH2 0x52A JUMP JUMPDEST PUSH2 0xAD4 JUMP JUMPDEST PUSH2 0x52A JUMP JUMPDEST SWAP1 POP SWAP2 SWAP1 POP JUMP JUMPDEST PUSH0 DUP2 SWAP1 POP SWAP2 SWAP1 POP JUMP JUMPDEST PUSH2 0xB10 DUP4 PUSH2 0xADD JUMP JUMPDEST PUSH2 0xB24 PUSH2 0xB1C DUP3 PUSH2 0xAFE JUMP JUMPDEST DUP5 DUP5 SLOAD PUSH2 0xA83 JUMP JUMPDEST DUP3 SSTORE POP POP POP POP JUMP JUMPDEST PUSH0 PUSH0 SWAP1 POP SWAP1 JUMP JUMPDEST PUSH2 0xB3B PUSH2 0xB2C JUMP JUMPDEST PUSH2 0xB46 DUP2 DUP5 DUP5 PUSH2 0xB07 JUMP JUMPDEST POP POP POP JUMP JUMPDEST JUMPDEST DUP2 DUP2 LT ISZERO PUSH2 0xB69 JUMPI PUSH2 0xB5E PUSH0 DUP3 PUSH2 0xB33 JUMP JUMPDEST PUSH1 0x1 DUP2 ADD SWAP1 POP PUSH2 0xB4C JUMP JUMPDEST POP POP JUMP JUMPDEST PUSH1 0x1F DUP3 GT ISZERO PUSH2 0xBAE JUMPI PUSH2 0xB7F DUP2 PUSH2 0xA56 JUMP JUMPDEST PUSH2 0xB88 DUP5 PUSH2 0xA68 JUMP JUMPDEST DUP2 ADD PUSH1 0x20 DUP6 LT ISZERO PUSH2 0xB97 JUMPI DUP2 SWAP1 POP JUMPDEST PUSH2 0xBAB PUSH2 0xBA3 DUP6 PUSH2 0xA68 JUMP JUMPDEST DUP4 ADD DUP3 PUSH2 0xB4B JUMP JUMPDEST POP POP JUMPDEST POP POP POP JUMP JUMPDEST PUSH0 DUP3 DUP3 SHR SWAP1 POP SWAP3 SWAP2 POP POP JUMP JUMPDEST PUSH0 PUSH2 0xBCE PUSH0 NOT DUP5 PUSH1 0x8 MUL PUSH2 0xBB3 JUMP JUMPDEST NOT DUP1 DUP4 AND SWAP2 POP POP SWAP3 SWAP2 POP POP JUMP JUMPDEST PUSH0 PUSH2 0xBE6 DUP4 DUP4 PUSH2 0xBBF JUMP JUMPDEST SWAP2 POP DUP3 PUSH1 0x2 MUL DUP3 OR SWAP1 POP SWAP3 SWAP2 POP POP JUMP JUMPDEST PUSH2 0xBFF DUP3 PUSH2 0x5AA JUMP JUMPDEST PUSH8 0xFFFFFFFFFFFFFFFF DUP2 GT ISZERO PUSH2 0xC18 JUMPI PUSH2 0xC17 PUSH2 0x826 JUMP JUMPDEST JUMPDEST PUSH2 0xC22 DUP3 SLOAD PUSH2 0x9BE JUMP JUMPDEST PUSH2 0xC2D DUP3 DUP3 DUP6 PUSH2 0xB6D JUMP JUMPDEST PUSH0 PUSH1 0x20 SWAP1 POP PUSH1 0x1F DUP4 GT PUSH1 0x1 DUP2 EQ PUSH2 0xC5E JUMPI PUSH0 DUP5 ISZERO PUSH2 0xC4C JUMPI DUP3 DUP8 ADD MLOAD SWAP1 POP JUMPDEST PUSH2 0xC56 DUP6 DUP3 PUSH2 0xBDB JUMP JUMPDEST DUP7 SSTORE POP PUSH2 0xCBD JUMP JUMPDEST PUSH1 0x1F NOT DUP5 AND PUSH2 0xC6C DUP7 PUSH2 0xA56 JUMP JUMPDEST PUSH0 JUMPDEST DUP3 DUP2 LT ISZERO PUSH2 0xC93 JUMPI DUP5 DUP10 ADD MLOAD DUP3 SSTORE PUSH1 0x1 DUP3 ADD SWAP2 POP PUSH1 0x20 DUP6 ADD SWAP5 POP PUSH1 0x20 DUP2 ADD SWAP1 POP PUSH2 0xC6E JUMP JUMPDEST DUP7 DUP4 LT ISZERO PUSH2 0xCB0 JUMPI DUP5 DUP10 ADD MLOAD PUSH2 0xCAC PUSH1 0x1F DUP10 AND DUP3 PUSH2 0xBBF JUMP JUMPDEST DUP4 SSTORE POP JUMPDEST PUSH1 0x1 PUSH1 0x2 DUP9 MUL ADD DUP9 SSTORE POP POP POP JUMPDEST POP POP POP POP POP POP JUMP JUMPDEST PUSH0 PUSH1 0x40 DUP3 ADD SWAP1 POP DUP2 DUP2 SUB PUSH0 DUP4 ADD MSTORE PUSH2 0xCDD DUP2 DUP6 PUSH2 0x5E2 JUMP JUMPDEST SWAP1 POP PUSH2 0xCEC PUSH1 0x20 DUP4 ADD DUP5 PUSH2 0x61A JUMP JUMPDEST SWAP4 SWAP3 POP POP POP JUMP INVALID LOG2 PUSH5 0x6970667358 0x22 SLT KECCAK256 POP DUP10 0xD3 CODECOPY SWAP1 GT DATALOADN 0x4505 PUSH1 0xC8 PUSH5 0x31A0074AC6 0xAA SIGNEXTEND CALL KECCAK256 0xAC 0xEF 0x2C PUSH14 0x679D0A260B00B64736F6C634300 ADDMOD 0x1E STOP CALLER "
				},
				"gasEstimates": {
					"creation": {
						"codeDepositCost": "673800",
						"executionCost": "706",
						"totalCost": "674506"
					},
					"external": {
						"createTweet(string)": "infinite",
						"getTweetsByAuthor(address)": "infinite",
						"tweets(address,uint256)": "infinite"
					}
				},
				"methodIdentifiers": {
					"createTweet(string)": "7c9cd2bc",
					"getTweetsByAuthor(address)": "58b93cfd",
					"tweets(address,uint256)": "05a1b4a9"
				}
			},
			"storageLayout": {
				"storage": [
					{
						"astId": 14,
						"contract": "Modifier-Exercise.sol:TweetStorage",
						"label": "tweets",
						"offset": 0,
						"slot": "0",
						"type": "t_mapping(t_address,t_array(t_struct(Tweet)8_storage)dyn_storage)"
					}
				],
				"types": {
					"t_address": {
						"encoding": "inplace",
						"label": "address",
						"numberOfBytes": "20"
					},
					"t_array(t_struct(Tweet)8_storage)dyn_storage": {
						"base": "t_struct(Tweet)8_storage",
						"encoding": "dynamic_array",
						"label": "struct TweetStorage.Tweet[]",
						"numberOfBytes": "32"
					},
					"t_mapping(t_address,t_array(t_struct(Tweet)8_storage)dyn_storage)": {
						"encoding": "mapping",
						"key": "t_address",
						"label": "mapping(address => struct TweetStorage.Tweet[])",
						"numberOfBytes": "32",
						"value": "t_array(t_struct(Tweet)8_storage)dyn_storage"
					},
					"t_string_storage": {
						"encoding": "bytes",
						"label": "string",
						"numberOfBytes": "32"
					},
					"t_struct(Tweet)8_storage": {
						"encoding": "inplace",
						"label": "struct TweetStorage.Tweet",
						"members": [
							{
								"astId": 3,
								"contract": "Modifier-Exercise.sol:TweetStorage",
								"label": "author",
								"offset": 0,
								"slot": "0",
								"type": "t_address"
							},
							{
								"astId": 5,
								"contract": "Modifier-Exercise.sol:TweetStorage",
								"label": "content",
								"offset": 0,
								"slot": "1",
								"type": "t_string_storage"
							},
							{
								"astId": 7,
								"contract": "Modifier-Exercise.sol:TweetStorage",
								"label": "timestamp",
								"offset": 0,
								"slot": "2",
								"type": "t_uint256"
							}
						],
						"numberOfBytes": "96"
					},
					"t_uint256": {
						"encoding": "inplace",
						"label": "uint256",
						"numberOfBytes": "32"
					}
				}
			},
			"userdoc": {
				"kind": "user",
				"methods": {},
				"version": 1
			}
		}
	}
}