{
	"data": {
		"bytecode": {
			"linkReferences": {},
			"object": "6080604052348015600e575f5ffd5b506103948061001c5f395ff3fe608060405234801561000f575f5ffd5b5060043610610055575f3560e01c80631003e2d2146100595780631dc05f17146100755780636537214714610091578063c6888fa1146100af578063de292789146100cb575b5f5ffd5b610073600480360381019061006e91906101bf565b6100e9565b005b61008f600480360381019061008a91906101bf565b610103565b005b610099610161565b6040516100a691906101f9565b60405180910390f35b6100c960048036038101906100c491906101bf565b610166565b005b6100d3610180565b6040516100e091906101f9565b60405180910390f35b805f5f8282546100f9919061023f565b9250508190555050565b805f541015610147576040517f08c379a000000000000000000000000000000000000000000000000000000000815260040161013e906102cc565b60405180910390fd5b805f5f82825461015791906102ea565b9250508190555050565b5f5481565b805f5f828254610176919061031d565b9250508190555050565b5f5f54905090565b5f5ffd5b5f819050919050565b61019e8161018c565b81146101a8575f5ffd5b50565b5f813590506101b981610195565b92915050565b5f602082840312156101d4576101d3610188565b5b5f6101e1848285016101ab565b91505092915050565b6101f38161018c565b82525050565b5f60208201905061020c5f8301846101ea565b92915050565b7f4e487b71000000000000000000000000000000000000000000000000000000005f52601160045260245ffd5b5f6102498261018c565b91506102548361018c565b925082820190508082111561026c5761026b610212565b5b92915050565b5f82825260208201905092915050565b7f526573756c742063616e6e6f74206265206e65676174697665000000000000005f82015250565b5f6102b6601983610272565b91506102c182610282565b602082019050919050565b5f6020820190508181035f8301526102e3816102aa565b9050919050565b5f6102f48261018c565b91506102ff8361018c565b925082820390508181111561031757610316610212565b5b92915050565b5f6103278261018c565b91506103328361018c565b92508282026103408161018c565b9150828204841483151761035757610356610212565b5b509291505056fea26469706673582212200786592904715f1a347b478ef0af97cdcb10f9c8bb6120604d7c258471f2c38c64736f6c634300081e0033",
			"opcodes": "PUSH1 0x80 PUSH1 0x40 MSTORE CALLVALUE DUP1 ISZERO PUSH1 0xE JUMPI PUSH0 PUSH0 REVERT JUMPDEST POP PUSH2 0x394 DUP1 PUSH2 0x1C PUSH0 CODECOPY PUSH0 RETURN INVALID PUSH1 0x80 PUSH1 0x40 MSTORE CALLVALUE DUP1 ISZERO PUSH2 0xF JUMPI PUSH0 PUSH0 REVERT JUMPDEST POP PUSH1 0x4 CALLDATASIZE LT PUSH2 0x55 JUMPI PUSH0 CALLDATALOAD PUSH1 0xE0 SHR DUP1 PUSH4 0x1003E2D2 EQ PUSH2 0x59 JUMPI DUP1 PUSH4 0x1DC05F17 EQ PUSH2 0x75 JUMPI DUP1 PUSH4 0x65372147 EQ PUSH2 0x91 JUMPI DUP1 PUSH4 0xC6888FA1 EQ PUSH2 0xAF JUMPI DUP1 PUSH4 0xDE292789 EQ PUSH2 0xCB JUMPI JUMPDEST PUSH0 PUSH0 REVERT JUMPDEST PUSH2 0x73 PUSH1 0x4 DUP1 CALLDATASIZE SUB DUP2 ADD SWAP1 PUSH2 0x6E SWAP2 SWAP1 PUSH2 0x1BF JUMP JUMPDEST PUSH2 0xE9 JUMP JUMPDEST STOP JUMPDEST PUSH2 0x8F PUSH1 0x4 DUP1 CALLDATASIZE SUB DUP2 ADD SWAP1 PUSH2 0x8A SWAP2 SWAP1 PUSH2 0x1BF JUMP JUMPDEST PUSH2 0x103 JUMP JUMPDEST STOP JUMPDEST PUSH2 0x99 PUSH2 0x161 JUMP JUMPDEST PUSH1 0x40 MLOAD PUSH2 0xA6 SWAP2 SWAP1 PUSH2 0x1F9 JUMP JUMPDEST PUSH1 0x40 MLOAD DUP1 SWAP2 SUB SWAP1 RETURN JUMPDEST PUSH2 0xC9 PUSH1 0x4 DUP1 CALLDATASIZE SUB DUP2 ADD SWAP1 PUSH2 0xC4 SWAP2 SWAP1 PUSH2 0x1BF JUMP JUMPDEST PUSH2 0x166 JUMP JUMPDEST STOP JUMPDEST PUSH2 0xD3 PUSH2 0x180 JUMP JUMPDEST PUSH1 0x40 MLOAD PUSH2 0xE0 SWAP2 SWAP1 PUSH2 0x1F9 JUMP JUMPDEST PUSH1 0x40 MLOAD DUP1 SWAP2 SUB SWAP1 RETURN JUMPDEST DUP1 PUSH0 PUSH0 DUP3 DUP3 SLOAD PUSH2 0xF9 SWAP2 SWAP1 PUSH2 0x23F JUMP JUMPDEST SWAP3 POP POP DUP2 SWAP1 SSTORE POP POP JUMP JUMPDEST DUP1 PUSH0 SLOAD LT ISZERO PUSH2 0x147 JUMPI PUSH1 0x40 MLOAD PUSH32 0x8C379A000000000000000000000000000000000000000000000000000000000 DUP2 MSTORE PUSH1 0x4 ADD PUSH2 0x13E SWAP1 PUSH2 0x2CC JUMP JUMPDEST PUSH1 0x40 MLOAD DUP1 SWAP2 SUB SWAP1 REVERT JUMPDEST DUP1 PUSH0 PUSH0 DUP3 DUP3 SLOAD PUSH2 0x157 SWAP2 SWAP1 PUSH2 0x2EA JUMP JUMPDEST SWAP3 POP POP DUP2 SWAP1 SSTORE POP POP JUMP JUMPDEST PUSH0 SLOAD DUP2 JUMP JUMPDEST DUP1 PUSH0 PUSH0 DUP3 DUP3 SLOAD PUSH2 0x176 SWAP2 SWAP1 PUSH2 0x31D JUMP JUMPDEST SWAP3 POP POP DUP2 SWAP1 SSTORE POP POP JUMP JUMPDEST PUSH0 PUSH0 SLOAD SWAP1 POP SWAP1 JUMP JUMPDEST PUSH0 PUSH0 REVERT JUMPDEST PUSH0 DUP2 SWAP1 POP SWAP2 SWAP1 POP JUMP JUMPDEST PUSH2 0x19E DUP2 PUSH2 0x18C JUMP JUMPDEST DUP2 EQ PUSH2 0x1A8 JUMPI PUSH0 PUSH0 REVERT JUMPDEST POP JUMP JUMPDEST PUSH0 DUP2 CALLDATALOAD SWAP1 POP PUSH2 0x1B9 DUP2 PUSH2 0x195 JUMP JUMPDEST SWAP3 SWAP2 POP POP JUMP JUMPDEST PUSH0 PUSH1 0x20 DUP3 DUP5 SUB SLT ISZERO PUSH2 0x1D4 JUMPI PUSH2 0x1D3 PUSH2 0x188 JUMP JUMPDEST JUMPDEST PUSH0 PUSH2 0x1E1 DUP5 DUP3 DUP6 ADD PUSH2 0x1AB JUMP JUMPDEST SWAP2 POP POP SWAP3 SWAP2 POP POP JUMP JUMPDEST PUSH2 0x1F3 DUP2 PUSH2 0x18C JUMP JUMPDEST DUP3 MSTORE POP POP JUMP JUMPDEST PUSH0 PUSH1 0x20 DUP3 ADD SWAP1 POP PUSH2 0x20C PUSH0 DUP4 ADD DUP5 PUSH2 0x1EA JUMP JUMPDEST SWAP3 SWAP2 POP POP JUMP JUMPDEST PUSH32 0x4E487B7100000000000000000000000000000000000000000000000000000000 PUSH0 MSTORE PUSH1 0x11 PUSH1 0x4 MSTORE PUSH1 0x24 PUSH0 REVERT JUMPDEST PUSH0 PUSH2 0x249 DUP3 PUSH2 0x18C JUMP JUMPDEST SWAP2 POP PUSH2 0x254 DUP4 PUSH2 0x18C JUMP JUMPDEST SWAP3 POP DUP3 DUP3 ADD SWAP1 POP DUP1 DUP3 GT ISZERO PUSH2 0x26C JUMPI PUSH2 0x26B PUSH2 0x212 JUMP JUMPDEST JUMPDEST SWAP3 SWAP2 POP POP JUMP JUMPDEST PUSH0 DUP3 DUP3 MSTORE PUSH1 0x20 DUP3 ADD SWAP1 POP SWAP3 SWAP2 POP POP JUMP JUMPDEST PUSH32 0x526573756C742063616E6E6F74206265206E6567617469766500000000000000 PUSH0 DUP3 ADD MSTORE POP JUMP JUMPDEST PUSH0 PUSH2 0x2B6 PUSH1 0x19 DUP4 PUSH2 0x272 JUMP JUMPDEST SWAP2 POP PUSH2 0x2C1 DUP3 PUSH2 0x282 JUMP JUMPDEST PUSH1 0x20 DUP3 ADD SWAP1 POP SWAP2 SWAP1 POP JUMP JUMPDEST PUSH0 PUSH1 0x20 DUP3 ADD SWAP1 POP DUP2 DUP2 SUB PUSH0 DUP4 ADD MSTORE PUSH2 0x2E3 DUP2 PUSH2 0x2AA JUMP JUMPDEST SWAP1 POP SWAP2 SWAP1 POP JUMP JUMPDEST PUSH0 PUSH2 0x2F4 DUP3 PUSH2 0x18C JUMP JUMPDEST SWAP2 POP PUSH2 0x2FF DUP4 PUSH2 0x18C JUMP JUMPDEST SWAP3 POP DUP3 DUP3 SUB SWAP1 POP DUP2 DUP2 GT ISZERO PUSH2 0x317 JUMPI PUSH2 0x316 PUSH2 0x212 JUMP JUMPDEST JUMPDEST SWAP3 SWAP2 POP POP JUMP JUMPDEST PUSH0 PUSH2 0x327 DUP3 PUSH2 0x18C JUMP JUMPDEST SWAP2 POP PUSH2 0x332 DUP4 PUSH2 0x18C JUMP JUMPDEST SWAP3 POP DUP3 DUP3 MUL PUSH2 0x340 DUP2 PUSH2 0x18C JUMP JUMPDEST SWAP2 POP DUP3 DUP3 DIV DUP5 EQ DUP4 ISZERO OR PUSH2 0x357 JUMPI PUSH2 0x356 PUSH2 0x212 JUMP JUMPDEST JUMPDEST POP SWAP3 SWAP2 POP POP JUMP INVALID LOG2 PUSH5 0x6970667358 0x22 SLT KECCAK256 SMOD DUP7 MSIZE 0x29 DIV PUSH18 0x5F1A347B478EF0AF97CDCB10F9C8BB612060 0x4D PUSH29 0x258471F2C38C64736F6C634300081E0033000000000000000000000000 "
		},
		"gasEstimates": {
			"creation": {
				"codeDepositCost": "183200",
				"executionCost": "224",
				"totalCost": "183424"
			},
			"external": {
				"add(uint256)": "infinite",
				"getResult()": "2497",
				"multiply(uint256)": "infinite",
				"result()": "2446",
				"subtract(uint256)": "infinite"
			}
		},
		"methodIdentifiers": {
			"add(uint256)": "1003e2d2",
			"getResult()": "de292789",
			"multiply(uint256)": "c6888fa1",
			"result()": "65372147",
			"subtract(uint256)": "1dc05f17"
		}
	},
	"abi": [
		{
			"inputs": [
				{
					"internalType": "uint256",
					"name": "value",
					"type": "uint256"
				}
			],
			"name": "add",
			"outputs": [],
			"stateMutability": "nonpayable",
			"type": "function"
		},
		{
			"inputs": [],
			"name": "getResult",
			"outputs": [
				{
					"internalType": "uint256",
					"name": "",
					"type": "uint256"
				}
			],
			"stateMutability": "view",
			"type": "function"
		},
		{
			"inputs": [
				{
					"internalType": "uint256",
					"name": "value",
					"type": "uint256"
				}
			],
			"name": "multiply",
			"outputs": [],
			"stateMutability": "nonpayable",
			"type": "function"
		},
		{
			"inputs": [],
			"name": "result",
			"outputs": [
				{
					"internalType": "uint256",
					"name": "",
					"type": "uint256"
				}
			],
			"stateMutability": "view",
			"type": "function"
		},
		{
			"inputs": [
				{
					"internalType": "uint256",
					"name": "value",
					"type": "uint256"
				}
			],
			"name": "subtract",
			"outputs": [],
			"stateMutability": "nonpayable",
			"type": "function"
		}
	]
}